:4000000000800020110000009D0900009D09000008B5044B1A6803F53F5302331A6000F0DDFC00BFFA46004010B5054C237833B9044B13B10448AFF300800123237010BD52
:400040005881FF1F00000000A4560000084B10B51BB108490848AFF300800848036803B910BD074B002BFBD0BDE81040184700BF000000005C81FF1FA4560000C880FF1FEE
:400080000000000011F0010F4CD12DE9F84F9B46924606464F0800243FE0E50056F8340004F094FF80463544686804F08FFF05464146404604F0DEFF80462946284604F0D7
:4000C000D9FF0146404604F0CDFE014604F0CAFE054604F045FB80468946284605F090F94AF82400002200234046494604F0F4FD18B100234BF824300DE04046494602F07D
:40010000EBFD0022094B04F07FFB04F055FE05F077F94BF824000134A4B2BC42BDD30020BDE8F88F6FF01300704700BF000024402DE9F04F89B0DDF8549003EB4204A142D1
:4001400040F38B8093461F461E4688468246580004F0F4FACDE9040102460B460020414904F07CFC02460B46DDE9120102F036FE00223D4B04F094F902460B46DDE904013E
:4001800004F042FBCDE906011FFA8BF4BBB2E218A9F80020C4EB0804E31A013B169A1380002556E0B9F800309D424CD3169B1B889D4223D947E0CBEB0503DB1B23445AF85D
:4001C000230004F0BBFA02460B46DDE9000104F069F9CDE900010BEB0503234401335AF8230004F0ABFA02460B46DDE9020104F059F9CDE902010134E4B206E000240022C7
:400200000023CDE90223CDE90023B442D3D3DDE90223DDE9000104F045F9DDE9042304F01DFC02460B46DDE9060104F0EDFA02F053FD00220D4B04F0E7FA04F095FD149B66
:4002400043F8250003E00023149A42F825300135ADB24545A6D3002001E06FF0130009B0BDE8F08F0000F0BF0000F03F0000244008B500F06DFD45F60403054AD35C1BB906
:40028000012145F60403D15400F0D4FC08BD00BF7481FF1F08B500F00FFD732804D1012145F60503044AD1546F2804D1022145F60503014AD15408BD7481FF1F38B541F61F
:4002C000FF734FF480420121022000F043FF0C4D287001F003FA0B4C20700623FE224FF4006101F015FA084A92B244F61061207801F022FA2178287801F0C2F938BD00BFDF
:40030000A1D9FF1FA0D9FF1F7681FF1F0A4A002345F6040153540121117045F60501535406E0054A02EB43020021518001331BB2B3F5806FF5DB70477481FF1F0000000005
:4003400070B586B062B600F01BFC00F0A3FB744800F062FC734800F0EDFC00F0D5FE00F075F900F02DF9FFF7D1FFFFF7A7FF45F604036D4AD35C012B08D013B1022B56D0FB
:40038000F5E70121022000F031F9F0E70121084600F02CF900F0CCFE0121644B187801F015F900F0F5FE0028E1D000F0C9FE5F4B187801F027F95C4C022245F60403E2548B
:4003C000A5184FF48061284600F0B2F804F604064FF480623146284601F006FA04F52055043504F5605304332A464FF400613046FFF748FE04F5B0430833049304F5B0431B
:400400000633039304F590440434029442A3D3E90023CDE9002328231C224FF480612846FFF786FE0021012000F0E0F89FE73E4B1B780A2B52D845F605033B4AD35C012BF2
:400440004CD11446012145F60403D154002000F0CDF8002545F60503E5540AE0324C04EB4504A07800F02EFC6088000A00F02AFC0135B5F5806FF1DB002511E005F56064BD
:40048000294B03EB8404207900F01CFC607900F019FCA07900F016FCE07900F013FC0135B5F5806FEADB002511E005F590541E4B03EB8404207900F005FC607900F002FCA8
:4004C000A07900F0FFFBE07900F0FCFB0135B5F5806FEADB144A137801331370124B1B780B2B0FD145F605030F4AD35C022B09D11346002245F604015A5445F605015A5455
:4005000001221A700021084600F070F80021012000F06CF82BE700BF48AFBC9AF2D77A3E71020000950200007481FF1FA1D9FF1F002839D02DE9F8430546002937D0884692
:4005400000242CE04FEA440935F8140004F03AFD194B03EBC403D3E9006704F001F932463B4604F051F904F027FC0646134904F03DFF20B14FF6FF7325F814300DE0002112
:40058000304604F015FF18B1002325F8093004E0304604F05BFF25F809000134A4B24445D0D30020BDE8F8836FF0130070476FF01300BDE8F88300BFA856000000FF7F4779
:4005C00010B500F06BFB074C204600F087FB204600F084FB044800F081FB204600F07EFB002010BDA8760000AC76000038B504460D46032824D8DFE800F00209101E08463D
:4006000000F0D8FA104B1D55002038BD084600F0C5FA0D4B1D55002038BD084600F0D6FA094B1D55002038BD29462046FFF7DEFF0134E4B200E00024022CF5D9002038BDC9
:400640006FF0130038BD00BF80D9FF1F38B50024254609E00021064B19552046FFF7C6FF00B105460134E4B2022CF3D9284638BD80D9FF1FFEE700BFF0B40022174611E024
:4006800050F82760F3B226F0FF0608E001EB420511F812406D78A5550132013BDBB2002BF4D101371C2FEBD9F0BC7047114B1B78DBB203F00701104A11701B090132137094
:4006C0008023A2F2337213702032137020220B4B1A70102203F69B031A70022268331A7040F2011246331A804422A3F534731A70704700BFCF0100496E580040FD5100405E
:4007000008B50A46002104F008FF08BD08B504F0F9FE08BD38B50024314B1C80502202331A70192502331D8018232E4A137040F65F11023211800232137004222A492B4890
:40074000FFF7E4FF02222A4B1A7008224FF040231A70032103F500731970264B1B78DBB225490B70254B1A8041F25122023B1A800CE0234B1B7803F0010343EA440404F0C1
:4007800003044FF4F07001F01FF8013D0DB1032CEFD115B90320FFF76DFF1A4B4FF480721A8007221A70002217490A704820023108701A700222033B1A7004220A331A70F0
:4007C000124A137843F007031370013A137843F001031370013A137843F08003137038BD804000408640004074040048004100400043004008010049A146004022420040F7
:40080000254200400440004006400040A2430040012807D8044B53F820201844017A13780B431370704700BFC0760000012808D8044B53F820201844017A137823EA0103CB
:4008400013707047C076000038B572B63D4A137843F00403137000240BE03B4863001A19510001440A46098AD068FFF749FF0134E4B2092CF1D900240BE03349A3001819E4
:40088000420088188022C16C806CFFF73FFF0134E4B2002CF1D02D494FF09040FFF7ECFE0A252B4B1D7004212A48FFF729FF042229492A48FFF72AFF04212948FFF720FF8F
:4008C000284A137843F0020313701032137843F002031370244C237843F040032370A2F58632513A137843F01003137008221F491F48FFF70BFF08221E491F48FFF706FF8A
:400900002A461E491E48FFF701FF08221D491E48FFF7FCFE1D4A137843F0080313701C4D61232B70FFF7F6FE81232B700122194B1A70FFF7BBFE0E2221461748FFF7E6FEAA
:4009400038BD00BFE8460040C076000074000048835800400076004078040048507600400876004003500140A043004050040048F251004058040048125100406004004841
:40098000205100406C04004852510040224300400048004004000840B043004008B504F075FD03680C2B00D1FEE7FEE708B5094B1A681044084BC31AB3F5005F02DC054B93
:4009C000186005E004F062FD0C2303604FF0FF32104608BDCC80FF1FB0D9FF1F08B5104E104D16E029686B68AC68002204E051F8040B43F8040B0432A242F8D1E868002236
:400A000003E0002143F8041B04328242F9D11035013E002EE6D104F03FFDFFF791FCFEE7010000004876020008B5114A114B1A60114A136843F40073136000230AE0032BB6
:400A400003D80E4A52F8231000E00D490D4A42F8231001332F2BF2D90B4B1A780B4B1A70084A0B4B1A60FFF7EFFE00F095FD08BD0004FA050CED00E014ED00E000000000A2
:400A80009D0900000080FF1FBC760040C080FF1F08ED00E010B500F0CBFB00F023FC074C0121207800F092FD0121607800F08EFD002000F0D9FB00F071FB10BD83D9FF1F3B
:400AC00070B505460E464FF48043020C0121084600F072FB094C2070A07801230246314600F016FE45F68332A9B2A07800F024FEA178207800F0C4FD70BD00BF83D9FF1F30
:400B000070B505460E464FF48043020C0121084600F070FB094C6070E07801230246314600F0F6FD45F68332A9B2E07800F004FEE178607800F0A4FD70BD00BF83D9FF1F12
:400B400010B500F0B9FB022000F080FB042000F0A3FB00F0E9FB00F0C1FD074CA07000F0BDFDE070054C64212046FFF7A9FF64216018FFF7C5FF10BD83D9FF1F147700008B
:400B800008B5054B1B7923B9FFF7DAFF0122024B1A71FFF77FFF08BD83D9FF1F044A137803F0DF03400100F0200018431070704720510040044A137803F0EF03000100F04A
:400BC000100018431070704720510040044A137803F0BF03800100F0400018431070704720510040014B1B689865704708ED00E04001C0B2014B1870704700BF06E400E001
:400C00004022014B1A60704700E100E04022014B1A60704780E100E010B50446FFF7F6FF2046FFF7DFFF0720FFF7E2FFFFF7E8FF10BD00BF4022014B1A60704780E200E038
:400C40007222074B1A70202203331A700622623B1A70472210331A70002253331A7070478A64004010B500F0B7FD04460A4A137843F0200313700332137843F01003137072
:400C80000132137843F01003137000F053FB204600F0A6FD10BD00BF9A64004008B5054B1B7823B9FFF7CCFF0122024B1A70FFF7D9FF08BD88D9FF1F014B1878704700BF11
:400CC0004D640040034B1B7813F0040FFAD1024B187070476E6400404E64004038B5074B1B782BB938BDFFF7EDFF0134A4B201E005460024285D0028F5D138BD88D9FF1F62
:400D0000014B1B681864704708ED00E04001C0B2014B1870704700BF00E400E00122014B1A60704700E100E00122014B1A60704780E100E010B50446FFF7F6FF2046FFF783
:400D4000DFFF0720FFF7E2FFFFF7E8FF10BD00BF014B1878C00970478245004010B59DF80840012C51D1013809282ED8DFE800F0052D2D052D2D0F192D230F2B03D92548FA
:400D8000007840B222E02448007840B21EE00F2B03D92248007840B218E02148007840B214E00F2B03D91F48007840B20EE01E48007840B20AE00F2B03D91C48007840B2D7
:400DC00004E01B48007840B200E0002001EB401101FB02F1C90B8AB20D2B0BD8C3F10E0289B211418AB2611E124800EB810101338B7005E0631E0F4901EB83030F21997080
:400E0000013C0C4B23F8242010BD002000F0A2FC10BD00BF180100491C010049190100491D0100491A0100491E0100491B0100491F0100498CD9FF1FF8B5074600F0CCFC57
:400E400006460D4D2B7843F003032B700B4C237843F0030323700A4B1F70032000F07CFC2B7803F0FC032B70237803F0FC032370304600F0B5FCF8BDF8460040F94600400F
:400E80009258004038B500222F4B1A7101285AD138222E4B1A70042202331A70062201331A70002401331C7001331C703F2201331A7002331C7001331C7001331C7001254E
:400EC0000A331D70502203F527631A700A23204A13702C210132117001321470442103321170482101321170013215700232147001321470013213704322164B1A70522001
:400F0000FFF79AFF5822144B1A7001331C700223124A137001321370114B1C7001331C70204600F025FA43F233320E4B1A602946052000F041FA2946BA2000F0C1FA0A49B5
:400F40001D2000F013FC38BD8CD9FF1F004E00408558004091580040945800409A5800409C580040A4D9FF1F51110000F0B583B0284D01272F70284E00247471102000F0A7
:400F800009FA102000F08AFA07211D2000F002FC0422224B1A7001331C7007331C70204A137843F0180313701E4B1C7003F2F5231C7001331C700A22A3F209331A700133C5
:400FC0001C7002331C705B2205331A705E2201331A7004331C701422A3F68C231A70009710234FF4004248F6F0510220FFF7B6FE2B78013B06EB83039A780B4B1A702B78D7
:40100000013B36F82320094B1A802878FFF73AFF03B0F0BDD080FF1F8CD9FF1F96580040075B0040935800400E4E00400C4E004070B500F0D1FB06462A4B1B782A4B1A7888
:4010400042F001021A701A7842F010021A7010331A7842F001021A701A7842F010021A70224D2B7843F002032B70214C237843F0020323701F4A137843F0030313700320D2
:4010800000F06AFB2B7803F0FD032B70237803F0FD032370184A137843F0060313707A22164B1A70164A137843F0010313701032137843F0010313700F3A137843F001031F
:4010C00013701032137843F0010313704FF000530C4A1360A2F5C0721360304600F080FB70BD00BFD080FF1FAA430040F8460040F946004091580040775800408258004098
:40110000A143004080E200E008B5084B9B794BB9064BDB7913F0FF0F01D1FFF727FF0122024B9A71FFF784FF08BD00BF8CD9FF1F024A137843F0010313707047004E0040AC
:40114000024A137803F0FE0313707047004E0040704700BFF0B583B016461F460B4C0A2525700023019300932B460A460146284600F092FA3A463146207800F067FA022173
:40118000207800F051FA207803B0F0BDD180FF1F014B1878704700BF6B640040054A137843F0040313701032137843F004031370704700BFA2430040F0B583B016461F463F
:4011C0000B4D00242C700194009423460A460146204600F061FA3A463146287800F036FA0221287800F020FA287803B0F0BD00BFD280FF1FF0B583B016461F460B4C012534
:4012000025700023019300930A460146284600F043FA3A463146207800F018FA0221207800F002FA207803B0F0BD00BFD380FF1F054A137843F0080313701032137843F0A2
:4012400008031370704700BFA8430040054B1A7802F0FD021A701A7800F0020010431870704700BF2C580040014B1870704700BF835B0040064B1B78C3F3810303F19243FA
:40128000063393F83831DBB2024A1370704700BF2C5800400B46004008B5064B1A7802F0F3021A701A7800F00C0010431870FFF7E1FF08BD2C58004008B50020074B18704A
:4012C00001331870064A137843F008031370FFF7E3FF0220FFF7BAFF08BD00BF2C5800409F5A0040084A137843F060031370A2F5A652133A137843F0080313701032137881
:4013000043F008031370704777580040054B1A7802F0FC021A701A7800F0030010431870704700BF5E58004008B50220FFF7EEFF08BD00BF054A137843F0020313701032E1
:40134000137843F002031370704700BFA243004010B5002404E02046FFF768FA0134E4B2012CF8D9FF22014B1A7010BDD480FF1F10B50446FFF7ECFF2046FFF749FA014B27
:401380001C7010BDD480FF1F014B188880B2704780400040034B1A7800F0F80010431870704700BF82400040024B187800F00700704700BF8240004070B505460E46FFF76C
:4013C000F3FF0446FFF7E0FFA84256D02B4B1B7803F0010294B900B185B938B9284B1D80284A137803F0BF03137070BD254A137843F040031370224B1D8070BD22B300230C
:4014000021490B7001240F310C7004310B700C390B7803F07F030B701A4B1B7813F0080F00D08DB9194B18800721013B1970164B1B7813F0010FFAD110490B7803F0FE03CB
:401440000B700021104B19700C4B1B7813F0010F0DD00E4B1D800EB1032200E001220A4B1A70094B1B7813F0010FFAD170BD044B1D8002490B7813430B7070BDA243004087
:4014800080400040824000400140004002400040014B188880B2704700410040034B1A7800F0F80010431870704700BF02410040024B187800F00700704700BF0241004068
:4014C00070B505460E46FFF7F3FF0446FFF7E0FFA84256D02B4B1B7803F0010294B900B185B938B9284B1D80284A137803F0BF03137070BD254A137843F040031370224B13
:401500001D8070BD22B3002321490B70012413310C7004390B7008390B7803F07F030B701A4B1B7813F0080F00D08DB9194B18800721013B1970164B1B7813F0010FFAD1D0
:4015400010490B7803F0FE030B700021104B19700C4B1B7813F0010F0DD00E4B1D800EB1032200E001220A4B1A70094B1B7813F0010FFAD170BD044B1D8002490B78134383
:401580000B7070BDA1430040004100400241004001400040024000400B4A7F2313708021517007E0DA0002F1804202F5F042013BDBB21370002BF5D1DB0003F1804303F516
:4015C000F04300221A707047D880FF1F172815D831B103010A495A5C42F020025A5405E0030107495A5C02F0DF025A540001044A835C43F001038354002070470120704767
:401600001070004017280BD80001064BC25C02F0FE02C254C25C02F0DF02C25400207047012070471070004017280BD80001064A835C03F0F103490001F00E011943815427
:4016400000207047012070471070004041F6FF73994201D14FF4005141F6FF739A4201D14FF40052172808D8C00000F1804000F5EC408180C280002070470120704700BFC3
:40168000172805D8034B03EB0010417200207047012070471070004017281BD810B4C00000F1804404F5EC44D201D2B201F07F01114321709DF804201201D2B203F00F030A
:4016C000134363709DF8083003F00F03A3700020E07001E00120704710BC704710B500F07BF80A4B5B78182B0BD9084A1478013B5370E30003F1804303F5F0431B78137001
:4017000000E0FF2400F06CF8204610BDD880FF1F10F0800F0CD111F4704F0BD1C00000F1804000F5F04001808270C37000207047012070470120704710F0800F08D1C000B2
:4017400000F1804000F5F0408180C280002070470120704701BE704708B5034B1B7A00FB03F000F031F808BDE080FF1F70B504460E46074B1D681F2802D90020FFF7EAFF86
:4017800004F01F04103455F8240045F8246070BD08ED00E038B504460D46072902D90020FFF7D8FF1F2C02D90020FFF7D3FF04F01F0000F1604000F564406D01EDB205704B
:4017C00038BD00BF000000000230800803D000BF01380046FCD17047EFF3108072B6704780F31088704700BFF0B587B006460F461446012300222146684600F03BFAA0001D
:4018000003F070FE0546002304E036F8132045F823200133A342F8DB3A462946684600F0F1F9284603F066FE07B0F0BD2DE9F04F9BB00546189008461991249C083412945B
:4018400009010439249C0C44139405F10807C1001791A1F1040CAC442599C900169102EB010E0B44421E049205930197CFE0DEF80020DEF80430019800684FEAE07914462F
:40188000D517CDE91445294600FB01F102FB0911A0FB02670F4416F1004647F10007DD179A46AB4600FB05F403FB0944A0FB0301214410F1004841F10009039700210291FD
:4018C00001994C68E71703FB07F6CDE906AB04FB0566A3FB04013144DDE902ABBAEB000A6BEB010B504610F100404BF10001CDF82490DDE902ABCDF820A0019D083501953E
:4019000002FB07F0159D04FB0500A2FB04450544DDE9086736196F41344614F1004447F100050B91CDF828A0DCF80040E71703FB07F2079904FB0122A3FB04011144DDE9E8
:401940000A89B8EB000869EB0109404610F1004049F10001059A10680D95CDF830A04FEAE07904FB09F200FB0722A4FB00451544DDE90C67361B67EB0507344614F10044E3
:4019800047F100050F91CDF838A05CF8042CD71700FB07F402FB0944A0FB02012144DDE90E8918EB000849EB0109404610F1004049F100011195CDF840A0ACF1080C03FB56
:4019C00007F0079C02FB0400A3FB02230344DDE91045A41A65EB0305224612F1004245F10003129C224642F8081B63605842139C234643F8080944F8041C1698059C044404
:401A00000594864404990139049113931292049B002B7FF42CAF18990B684A689B1A5B10249A199842F83030179B043300222498C2500B4609685B680B445B100360426059
:401A40001BB0BDE8F08F00BF2DE9F04F95B011900391964610934FEAC10C0CF1040C8444C8E0DEF80020DEF80430119F39684FEAE1791446D517CDE91245284601FB00F056
:401A800002FB0900A1FB0245054414F1004445F1000558424FEAE07B00FB09F401FB0B44A0FB0101214410F1004841F100090195002100917E684FEAE67B1846D917CDE9AD
:401AC000040106FB01F403FB0B44A6FB03012144DDE9004524184D41204610F1004045F10001CDF81C90DDE90089CDF8188007F10804119402FB0BF0139C06FB0400A2FBD2
:401B000006670744DDE90645A4197D41264616F1004445F100050991CDF82080DCF80040E71703FB07F2059904FB0122A3FB04011144DDE908AB1AEB000A4BEB010B50464F
:401B400010F100404BF10001109A10680B95C246CDF828804FEAE07904FB09F200FB0722A4FB00451544DDE90A67361B67EB0507344614F1004447F100050D91CDF830A0AA
:401B80005CF8042CD71700FB07F402FB0944A0FB02012144DDE90C9A19EB00094AEB010A484610F100404AF100010F95009C0E94ACF1080C03FB07F0059C02FB0400A3FBE4
:401BC00002230344DDE90E45A4185D41224612F1004245F100031E9A42F8081B1E9843601F9BDB001099194410919E44039B013B03931E92039B002B7FF433AF15B0BDE8EC
:401C0000F08F00BF2DE9F04182B00446884615464769066876080279012A1AD18368019300950369C26831464046FFF70DFF637922792946384600F021FA002305E055F8E0
:401C40002320520045F82320013322689342F6D30CE04379384600F011FA2369E268A1680191009531464046FFF7E0FD02B0BDE8F08100BF10B489B201602F4CC4602F4CFB
:401C8000046102714371B1F5007F32D00BD8402941D002D8202944D04AE0802935D0B1F5807F2CD044E0B1F5006F16D003D8B1F5806F18D03CE0B1F5805F08D0B1F5005F6F
:401CC00036D1012383601E4B4361002032E0022383601C4B436100202CE0042383601A4B4361002026E008238360184B4361002020E010238360164B436100201AE0202372
:401D00008360144B4361002014E040238360124B436100200EE080238360104B4361002008E04FF4807383600D4B4361002001E04FF0FF3010BC7047DC770000DCF700009A
:401D40005C7801004C7801001C780100EC7701000C7801003C7801002C780100DC770100FC7701002DE9F04F8FB083460D910C924FEA510A4FF00009CC46CDF814A0CA4619
:401D80007FE04FEACA030C9951F83A00043351F803E00AF1010A059B0CEB03024FEACC015BF83C309C104FEAC2080A925BF832309A10A31A22444BF83C2004315BF80120B7
:401DC000941008F104020B925BF802209510621B2C444BF801401C46DD17C71703FB07F1CDE9064500FB0511A3FB00450D4414F1004845F10009D51700FB05F402FB0744F4
:401E0000A0FB0201214410F1004641F10007CDE90867CDF80490002100917046C11702FB01F00EFB0500A2FB0E450544DDE9008918EB040649EB0507344614F1004447F195
:401E40000005099E0396CDF8088003FB01F1079A0EFB0211A3FB0E230B44DDE90201801A61EB0301024612F1004241F100036A000A994BF831205B000B9A4BF802300CF17D
:401E8000010C059B9C45FFF47CAF9A4602230C9C22465146584600F04FF90223224651460D980BEB800000F047F900221BE013015BF8035003F1040E5BF80E4003F1080704
:401EC0005BF8070003F10C065BF806106D006400400049004BF803504BF80E404BF807004BF8061001325245E1D30FB0BDE8F08F2DE9F04F8FB083460D910C924FEA510A67
:401F00004FF00009CC46CDF814A0CA467EE04FEACA030C9951F83A00043351F803E00AF1010A059B0CEB03024FEACC015BF83C309C104FEAC2080A925BF832309A10A31A01
:401F400022444BF83C2004315BF80120941008F104020B925BF802209510621B2C444BF801401C46DD17C71703FB07F1CDE9064500FB0511A3FB00450D4414F1004845F1F5
:401F80000009D51700FB05F402FB0744A0FB0201214410F1004641F10007CDE90867CDF80490002100917046C11702FB01F00EFB0500A2FB0E450544DDE90089B8EB04067E
:401FC00069EB0507344614F1004447F10005099E0396CDF8088003FB01F1079A0EFB0211A3FB0E230B44DDE9020180185941024612F1004241F100036A000A994BF83120CB
:402000005B000B9A4BF802300CF1010C059B9C45FFF47DAF9A4602230C9C22465146584600F042FB0223224651460D980BEB800000F03AFB00221BE013015BF8035003F1DB
:40204000040E5BF80E4003F108075BF8070003F10C065BF806106D006400400049004BF803504BF80E404BF807004BF8061001325245E1D30FB0BDE8F08F00BF70B504462E
:402080000D461E460188012A27D1B1F5807F19D00AD820291CD002D8102945D112E0402910D0802914D03FE0B1F5806F0AD003D8B1F5007F0CD037E0B1F5006F08D0B1F513
:4020C000805F31D101236268284600F0EDFA2BE062682846FFF70CFF26E0B1F5807F19D00AD820291CD002D810291DD112E0402910D0802914D017E0B1F5806F0AD003D8D3
:40210000B1F5007F0CD00FE0B1F5006F08D0B1F5805F09D101236268284600F00DF803E062682846FFF71EFE26B1A268A189284600F072FD70BD00BF2DE9F04FA5B02090C7
:402140001991219211938B0819462393DB00C618F418029404EB0309044608914FF00008CDF80480CA46934623681B110298026812119D18C2EB030C3168DAF80020131106
:4021800003EB211362681211406800111718121A0492EA18214641F8082B0991EB1A1D467068DAF804100A1102EB2012B9186160BA1A7068DAF804100911C1EB201E3068D7
:4021C000DAF800100911C1EB20170A97019908015BF8001004305BF800004FEAE37844469846A1460B46CC17CDE90E3405FB04F4CDE90C8901FB09440695A5FB018904EB83
:4022000009054FEAE2794FEAE07802FB08F700FB0977A2FB00342744EC196400334643F8084B109301FB09F70F9C02FB0477A1FB02452F44069B03FB08F20D9D00FB0522CB
:40224000A3FB00010A44BA1A530073600CEB0E01CEEB0C03049A0A9CC4EB020C22440198C4005BF8300004345BF804E0CE170F46B046C51701FB05F4CDE9047800FB06447B
:40228000A1FB00673C444FEAEC78C146E0467646F717CDE90A670CFB07F6CDE906890EFB0966ACFB0E78464434446400029FB84648F8084BCDF83080079E00FB06F60CFB42
:4022C0000566A0FB0C452E440B9C01FB04F405980EFB0044A1FB0E012144761A71007960019901EB4100C1005BF830E004315BF801C04FEAE3797446E51703FB05F40EFB27
:402300000944A3FB0E010C44D7176046C117CDE9020102FB01F00CFB07010491A2FB0C01084604990144084620444400504640F8084B0EFB07F602FB0566AEFB02452E44DB
:40234000039903FB01F10CFB0911A3FB0C230B44F61A7300CAF804300199119A8A180192099C109E0C9F02978246089B013B08937FF4FAAE119B9B001F93199B9B082293A8
:40238000239B119342E1119B9B081D9300231C931E932DE11E9D05EB4502EB00219850F835101A910433C35806932B01C1581B910433C3580993D30050F832200A92043330
:4023C00050F803B01F9BEB181E93209B19461C9A01EBC20A1D9BDB000AEB030808EB030909EB030E0492CDF840A0CDF80480CDF80890CDF830B0F3E0109F3A6802990B689D
:40240000D418D31A0E937A684B68D018C3EB020B019E3268DEF80030D1186518AD103D60611A7268DEF804301344C21892107A60119AD200089214463A4622441092C3EB38
:40244000000C7268DEF80430C3EB020A3068DEF80030C01ACE170F46B0461B9E3446F517CDE914452C4601FB04F4CDE9127806FB0844A1FB06231C441894E0464FEAEC7934
:40248000CDE91689099D4FEAE57843460CFB08F2DDE9168905FB0922ACFB05452A44189C22445210019C226006FB09F2159D0CFB0522A6FB0C45541901FB03F5139B099EF3
:4024C00006FB0355A1FB06231D44651B6D10019B5D60089D1946294401910E9B03EB0A0CCAEB0302C0EB0B080BEB00036046C11764460D461A9E4FEAE67B0CFB0BF9CDE958
:40250000124506FB0199ACFB060189444046C117CDE90E01069D2C46E91708FB01F02F460F9D04FB0500A8FB0745284448444010029C20600F9C06FB04F408FB0B40A6FBF5
:40254000088900EB09040CFB01F513980746069E304606FB0755ACFB00010D44651B6D10029C6560089D611902914FEAE27B0A9E4FEAE67902FB09FC06FB0BCCA2FB060107
:402580008C441846D917CDE90E010C9DEF17394603FB07F02E460F9C05FB0400A3FB0667384460444010CEF800000A9F0F9C07FB04F403FB0940A7FB0345284402FB01F1D7
:4025C0000C9D05FB0B11A2FB05231944401A4010CEF80400089DAE44049B119A13440493049B199A9342FFF407AF1C9B01331C931D9B013B1C9A9A427FF6CCAE1F9B9B007D
:402600001F93229B9B0822931D9B1193229B042B3FF6B9AEDDF880E0239CDEF80020DEF80470DEF80830DEF80C90DEF81080DEF81460DEF81850DEF81CC0D01840442844C3
:4026400007EB090131446144CEF80000CEF80410D01A4044401BC9EB07013144CCEB0101CEF80800CEF80C1002EB0900C8EB0000CCEB0000F91A891B2944CEF81000CEF821
:402680001410C9EB0202C8EB020262443B449B1B5B1BCEF81820CEF81C300EF1200E013CBBD125B0BDE8F08F2DE9F04FA5B020901991219211938B0819462393DB00C6187B
:4026C000F418029404EB0309044608914FF00008CDF80480CA46934623681B110298026812119D18C2EB030C3168DAF80020131103EB211362681211406800111718121AC0
:402700000492EA18214641F8082B0991EB1A1D467068DAF804100A1102EB2012B9186160BA1A7068DAF804100911C1EB201E3068DAF800100911C1EB20170A970199080151
:402740005BF8001004305BF800004FEAE37844469846A1460B46CC17CDE90E3405FB04F4CDE90C8901FB09440695A5FB018904EB09054FEAE2794FEAE07802FB08F700FBF6
:402780000977A2FB00342744EC1B6400334643F8084B109301FB09F70F9C02FB0477A1FB02452F44069B03FB08F20D9D00FB0522A3FB00010A443A4453007360CEEB0C0117
:4027C0000CEB0E03049A0A9C02EB040C121B0198C4005BF8300004345BF804E0CE170F46B046C51701FB05F4CDE9047800FB0644A1FB00673C444FEAEC78C146E046764693
:40280000F717CDE90A670CFB07F6CDE906890EFB0966ACFB0E784644A41B6400029FB84648F8084BCDF83080079E00FB06F60CFB0566A0FB0C452E440B9C01FB04F405987D
:402840000EFB0044A1FB0E0121440E4471007960019901EB4100C1005BF830E004315BF801C04FEAE3797446E51703FB05F40EFB0944A3FB0E010C44D7176046C117CDE974
:40288000020102FB01F00CFB07010491A2FB0C01084604990144601A4400504640F8084B0EFB07F602FB0566AEFB02452E44039903FB01F10CFB0911A3FB0C230B441E44CF
:4028C0007300CAF804300199119A8A180192099C109E0C9F02978246089B013B08937FF4FBAE119B9B001F93199B9B082293239B119344E1119B9B081D9300231C931E93F2
:402900002FE11E9D05EB4502EB00219850F835101A910433C35806932B01C1581B910433C3580993D30050F832200A92043350F803B01F9BEB181E93209B19461C9A01EB8A
:40294000C20A1D9BDB000AEB030808EB030909EB030E0492CDF840A0CDF80480CDF80890CDF830B0F5E0109F3A6802990B68D418D31A0E937A684B68D018C3EB020B019EE9
:402980003268DEF80030D1186518AD103D60611A7268DEF804301344C21892107A60119AD200089214463A4622441092C3EB000C7268DEF80430C3EB020A3068DEF80030BC
:4029C000C01ACE170F46B0461B9E3446F517CDE914452C4601FB04F4CDE9127806FB0844A1FB06231C441894E0464FEAEC79CDE91689099D4FEAE57843460CFB08F2DDE916
:402A0000168905FB0922ACFB05452A44189CA21A5210019C226006FB09F2159D0CFB0522A6FB0C45541901FB03F5139B099E06FB0355A1FB06231D4425446D10019B5D603A
:402A4000089D1946294401910E9BCAEB030C53441A460BEB0008C0EB0B036046C11764460D461A9E4FEAE67B0CFB0BF9CDE9124506FB0199ACFB060189444046C117CDE929
:402A80000E01069D2C46E91708FB01F02F460F9D04FB0500A8FB07452844C0EB09004010029C20600F9C06FB04F408FB0B40A6FB088900EB09040CFB01F513980746069EA7
:402AC000304606FB0755ACFB00010D4425446D10029C6560089D611902914FEAE27B0A9E4FEAE67902FB09FC06FB0BCCA2FB06018C441846D917CDE90E010C9DEF173946AA
:402B000003FB07F02E460F9C05FB0400A3FB06673844C0EB0C004010CEF800000A9F0F9C07FB04F403FB0940A7FB0345284402FB01F10C9D05FB0B11A2FB0523194408441C
:402B40004010CEF80400089DAE44049B119A13440493049B199A9342FFF405AF1C9B01331C931D9B013B1C9A9A427FF6CAAE1F9B9B001F93229B9B0822931D9B1193229B5C
:402B8000042B3FF6B7AEDDF880E0239CDEF80090DEF80430DEF80870DEF80C20DEF81080DEF81460DEF81850DEF81CC009EB070040442844991831446144CEF80000CEF8B6
:402BC0000410C7EB09004044401B991A3144CCEB0101CEF80800CEF80C10C2EB0900C8EB00006044D919891B491BCEF81000CEF814104A44C8EB0202CCEB0202DB1B9B1B23
:402C00002B44CEF81820CEF81C300EF1200E013CBCD125B0BDE8F08F4B1C012B98BF70472DE9F003911C9B08B1F80480B1F802900A8831F802CC8044814402448444D9F8D2
:402C40000070D8F800601568DCF80040C9F80060C8F80070CCF800501460D9F80470D8F804605568DCF80440C9F80460C8F80470CCF8045054600831013BD5D1BDE8F00324
:402C800070474B1C012B98BF70472DE9F003911C9B08B1F80480B1F802900A8831F802CC00EB580800EB590900EB520200EB5C0CD9F80070D8F800601568DCF80040C9F885
:402CC0000060C8F80070CCF8005014600831013BDFD1BDE8F00370472DE9F0438BB004460D4600F015FA384B064693F900800F46B8F1FF3F0ED022462B462046294602F093
:402D00001DF8814630B9002200232046294601F0F7FF20B9304639460BB0BDE8F0832B4BCDF82090CDE90245CDE904450193B8F1000F19D1264F4FF06046204629460022BE
:402D40000023CDE9066701F0C7FF002834D002230093684601F098F8A8B1089BC3B9DDE906010BB0BDE8F0831A4F00262046294600220023CDE9066701F0AEFF68B1022383
:402D800098450093E5D102F081FB22230360E4E702F07CFB089B0360E1E70123B8F1020F00930BD102F072FB212303600A4801F06DF8CDE90601D0E701230093684601F010
:402DC00063F80028F2D1EDE7F080FF1F04760200FFFFEFC70000F0FFB87600002DE9F04F8DB006460F4614461D4600F01DFADFF81093CDE9000199F90080B8F1FF3F46D0A7
:402E000022462B462046294601F098FF834600283DD132463B463046394601F08FFF8246002874D1304639460022002301F054FF002833D0002200232046294601F04CFFBC
:402E40008346B8B1A94A012300200021CDF828A0CDE90467CDE90645CDE9080103920293B8F1000F6CD0A24B0022104619460DB0BDE8F08F2046294601F000F838B10022CE
:402E800000232046294601F031FF00286AD1DDE90023104619460DB0BDE8F08FDDE9000100F0ECFF804600287DD0DDE900014FF0000A4FF0000B52465B4601F00DFF002882
:402EC000E5D03046394600F0D9FF0028DFD02046294600F0D3FF0028D9D099F90030834804210022022BCDE90467CDE90645CDE908AB039002910A9204D002A800F0C4FFA2
:402F0000002847D102F0C2FA2223036042E0002200232046294601F0DFFE0028B7D0744B724800220121B8F1020FCDF828B0CDE90467CDE90645CDE9082303900291A8D08D
:402F400002A800F0A1FF00287ED00A9B43B302F09DFADDE908230A990160104619460DB0BDE8F08F614999F900300122CDF828B0CDE90467CDE9064503910292002B68D019
:402F80005C490020022BCDE9080166D102F07EFA212303600A9B1BB102F078FA0A9B0360DDE9082375E73046394600F067FF00283FF47BAF2046294600F060FF00283FF49F
:402FC00074AFDDE900231046194601F0B7FE00286FD1464B99F90080039303230A90CDE90467CDE906450293B8F1000F3BD1DFF814B14FF0604A0022002330463946CDE919
:4030000008AB01F073FE00283FF477AF00223A4B2046294601F0F8FB04460D4600F03CFF02460B462046294601F056FE00283DD1324B4FF06042CDE9082399F90080B8F1EF
:40304000020F7FF45AAF5DE702F020FA212303607BE700230024CDE9083402A800F014FF002897D192E7DFF8A0B04FF0000A0022002330463946CDE908AB01F037FE00281A
:40308000DDD000221C4B2046294601F0BDFB04460D4600F001FF02460B462046294601F01BFE18B9134B0022CDE9082399F90080C5E70E4A99F900900123CDF82880CDE9A6
:4030C0000467CDE9064503920293B9F1000FC0D0002200231046194601F0C0FCB9F1020FCDE908013FF452AFB7E700BF0C7602000000F03F0000F0FF0000E03FFFFFEFC7CA
:40310000F080FF1FFFFFEF470000F07F00000000B1F5801F2DE9F84304460D460B461ADA024621F00046324358D000295EDB0022394B01F069FB0B460D46384904468B4211
:403140006FF035020BDD22462B462046294601F0A9F9BDE8F883314900228B42F3DC1815A0F2FF3010444FEAD0794844C3F3130801F0E4FAC9F57F73033348EA035506468C
:403180000F462046294600F08BFF1DA3D3E90023804689463046394601F036FB1AA3D3E9002304460D464046494601F02DFB02460B462046294601F075F915A3D3E9002355
:4031C00004460D463046394601F01EFB02460B462046294601F066F9BDE8F8830022002300200F4901F03AFCBDE8F88302460B4601F056F90022002301F030FCBDE8F883F6
:40320000362BF111F3FE593D0EE526157BCBDB3F00609F501344D33F00005043FFFFEF7F000050C3000000002DE9F04F23F0004858EA020993B03CD0714C21F00046A64204
:4032400083460D460CDD06F1404606F5801656EA0B0038D183466B49584613B0BDE8F08F9A4696462BD0A045EDDC654CA04578D0002D0F468146CDE9002376DB0024BEF15C
:40328000000F27D15E4B984500F08B805D4B984552D0BAF1804F00F0C9835B4B9A4519D1002D17DB4846394613B0BDE8F04F00F01DBDCB465846534913B0BDE8F08F0028C3
:4032C000C1D1B045D1DD514813B0BDE8F04F00F0DDBD00244846394600F0CCFDBBF1000F1CD0ED0F013D54EA050370D0484B984540F3948003F10473984540F30D84454B2B
:403300009E4270DDBAF1000F70DD3BA3D3E900231046194601F078FA83469DE726B1394B25F040429A42DCD1BAF1000FC0F2B783002D08DB83468FE7BAF1000FC0F25E8479
:40334000CB46394688E706F1404606F5801656EA040300F08384012CECD101F1004183467AE7BEF1000F83D06DE72B4B98452CDCA3F15473984581DD4FEA2853A3F2FF33EA
:40338000142B40F35384C3F134032EFA03F202FA03F39E457FF472AF02F00102C2F102046DE706F1404303F5801353EA0B0300F03A83184B9E4240F36783BAF1000F15DB4A
:4033C000DDE900349B46214646E7022457E74A4648463B46394601F063F802460B4601F03DFB834638E7BAF1000F8EDB4FF0000B594631E7AFF300809C7500883CE4377E32
:403400000000F07F0000F03F0000E03FB87600000000E041FFFFEF3FFFFF3F43B6F5801F4FF0000205DAD04B01F0EEF90E466FF03402DFF844E33315C6F31306A3F2FF33AF
:4034400046F07F57764503EB020A47F4401740F3C983C64B00229E4240F304840023CDE90823CDE90C23C24B0022CDE906230AF1010AA7F5801700263946DDE90623CDE932
:403480000A0101F00DF8DDE9062380468946DDE90A0101F007F802460B460020B44901F0DDFA0A4601461346CDE90E1202464946404601F0A9F98C4683467B1043F00053E6
:4034C00003F5002399190020CDE904BC06460F464FF0000B6146584632463B46CDE910BCCDE9020101F090F902460B464046494600F0D6FFDDE9062380468946304639469F
:4035000000F0CEFF02460B46DDE90A0100F0C8FFDDE9022301F078F902460B464046494600F0BEFFDDE90E2301F06EF9DDE90478CDE906013A4643463846414601F064F95B
:4035400077A3D3E9002306460F4601F05DF976A3D3E9002300F0A6FF32463B4601F054F973A3D3E9002300F09DFF32463B4601F04BF971A3D3E9002300F094FF32463B4688
:4035800001F042F96EA3D3E9002300F08BFF32463B4601F039F96CA3D3E9002300F082FF3246804689463B463046394601F02CF902460B464046494601F026F9DDE90223B8
:4035C00006460F46DDE9040100F06CFFDDE9062301F01AF932463B4600F064FFDDE902678046894632463B463046394601F00CF90022604BCDE90A0100F054FF42464B4633
:4036000000F050FFDDE910BC0F46DDE902015A463B46CDE90EBC5E4601F0F6F80022CDE90201544B3046394600F03AFFDDE90A2300F036FF02460B464046494600F030FFFA
:40364000DDE9042301F0E0F8324680468946DDE906013B4601F0D8F802460B464046494600F020FF8046894602460B46DDE9020100F018FFDDE90EBC35A3D3E900235846D8
:40368000CDE906BC5E460F4601F0BEF8DDE90223CDE904013046394600F002FF02460B464046494600F0FCFE2BA3D3E9002301F0ABF82BA3D3E90023804689463046394656
:4036C00001F0A2F802460B464046494600F0EAFEDDE90C2300F0E6FE80465046894601F02DF806460F46DDE9040142464B4600F0D9FEDDE9082300F0D5FE32463B4600F0C6
:40370000D1FEDDE906BC324658463B46DA468B4600F0C6FEDDE9082330E000BFAFF30080EF4E454A287ECA3F65DBC9934A86CD3F01411DA96074D13F4D268F515555D53F24
:40374000FFAB6FDBB66DDB3F033333333333E33F000000E009C7EE3FFD033ADC09C7EE3FF5015B14E02F3EBE0000404379B60B000000F03F000008408E98030000F090FEB9
:40378000DDE9042300F08CFE02460B464046494600F086FE80468946DDE90012013C54EA050314BFD64CD74C0023CDE904340B461446CDE9023400230293DDE902450846BD
:4037C0002B461146224600F06BFE52465B4601F01BF8DDE9002306460F464046494601F013F802460B463046394600F05BFE06460F4622462B4650465946CDE9006701F0D4
:4038000003F80B460246804689463046394600F049FEBD4B064699420D460C4640F30E8101F13F4303F5E003034340F0F081A0A3D3E90023DDE9000100F034FE424682460C
:403840008B464B463046294600F02AFE02460B465046594601F068FA002840F0D8812F463B154FF48012A3F2FE3342FA03F32344C3F30A52A54EA2F2FF321641C3F3130B29
:403880000020C2F1140523EA06014BF4801B02460B46002C4BFA05FB40464946B8BFCBF1000B00F0FDFD02460B4680468946DDE9000100F0F7FD4FEA0B5A00247EA3D3E96F
:4038C000002320460D4600F09FFF424606460F464B462046294600F0E3FD02460B46DDE9000100F0DDFD76A3D3E9002300F08CFF75A3D3E90023804689462046294600F011
:4039000083FF02460B464046494600F0CBFD8046894602460B463046394600F0C3FD32463B4604460D4600F0BBFD02460B464046494600F0B5FD2246804689462B4620466A
:40394000294600F061FF62A3D3E9002306460F4600F05AFF60A3D3E9002300F0A1FD32463B4600F051FF5EA3D3E9002300F09AFD32463B4600F048FF5BA3D3E9002300F0AD
:403980008FFD32463B4600F03FFF59A3D3E9002300F088FD32463B4600F036FF02460B462046294600F07CFD06460F4602460B462046294600F028FF0022CDE900014FF0D1
:4039C00080433046394600F06BFD02460B46DDE9000101F043F8424606460F464B462046294600F011FF42464B4600F05BFD02460B463046394600F053FD22462B4600F0A4
:403A00004FFD02460B4600203D4900F049FD8A44BAF5801FC0F237815146DDE9042300F0F3FE834618E4F346354915E44A4648463B46394600F0E8FE83460DE4344B21F027
:403A400000479F4240F30181324B0B4403430CD142464B4600F024FD02460B46DDE9000101F04EF900283FF4FBAE23A3D3E90023DDE9040100F0C8FE1FA3D3E9002300F0FD
:403A8000C3FE8346FFF7E8BBBAF1000FBFF6AEACDDE900349B4604F10041FFF7DDBB02460B460020164900F0D9FF41E4AFF30080FE822B654715973C00000000432EE63F7F
:403AC000EF39FAFE422EE63F396CA80C615C20BED0A4BE726937663EF16BD2C541BDBB3E2CDE25AF6A56113F93BDBE166CC1663F3E5555555555C53F59F3F8C21F6EA50143
:403B00000000F03F0000F0BFFFFF8F40FFFF0F00FFCB904000346F3F6F4B9E427FF763AC6E4B9E423FF7EEAB00226C4B00F0B8FC5BA3D3E9002306460F4600F065FE5AA37F
:403B4000D3E90023804689463046394600F05CFE002282468B46624B3046394600F054FE02460B4652A1D1E9000100F099FC32463B4600F049FE02460B460020594900F0AC
:403B80008FFC3246CDE902013B463046394600F03BFE02460B46DDE9020100F035FE46A3D3E9002300F030FE02460B465046594600F076FC02460B4606460F4640464946C0
:403BC00000F070FC42464B46002082468B4600F067FC02460B463046394600F061FC80468946D9E500220023CDE90823CDE90C233A4B00220026CDE906233DE44A463B462D
:403C00000020364900F02AFF8346FFF725BB2CA3D3E90023DDE9040100F0F6FD28A3D3E9002300F0F1FD8346FFF716BBBEF1000F7FF44FABC3F1140348FA03F202FA03F39A
:403C4000984524D07446FFF721BB264B9F423FF707AEDDE902349A469B462EE602460B46FFF7B9BB204B4FF48026CDE9062316A3D3E90023CDE9082315A3D3E90023CDE9DD
:403C80000C23FFF7F9BB5A4600F096F9C5E602F00102C2F10204FFF7F9BA00BFAFF30080000000604715F73F44DF5DF80BAE543E555555555555D53FFE822B654715F73FC0
:403CC0009C7500883CE4377E0000004003B8E23F06D0CF43EBFD4C3EFEFFEF3F0000F03F0000D03F0000E03F0000F83F2DE9F0415F4E0C46B6460E407645054600F0988083
:403D000000290B46024674DD5FEA215E7FD0AEF2FF3EC3F313031EF0010F43F4801363D100273E4603EBD2710B444FEA6E0E520016204FF4001174189C424FEAD2754FEAB5
:403D4000420202DC1B1B66180F44013805EB43034FEA5101EFD1844620244FF0004109E020D003EBD275013C4FEA51012B444FEA420220D09E4201EB0C05F1DA002D05EB5B
:403D8000010C09DBB0469542A3EB060300D9013B4646521B0844E4E7BCF1000FF2DB06F10108F0E7954217D8002D05EB010C49DB98460023ECE7134310D140087B1003F143
:403DC0007F5303F50013FA0703EB0E57394648BF40F00040BDE8F0813346C2E7411C35D000F001031844E8E75B0003EBD273520096E721F000460643ECD079BB8E46D30A45
:403E0000AEF1150E5205002BF9D0DD0221D4002100E001465B00DC0201F10100F9D5C0F1200422FA04F42343C1EB0E0E82406EE702460B4600F0E8FC2A46234600F032FBCE
:403E4000BDE8F081BCF1000FA9DAB1E701372046B4E720244FF0FF310020E2E702460B4600F01EFB02460B4600F0F8FDB2E700BF0000F07F21F00041704700BF41F000415F
:403E800001F58010C00F70470020704700200149704700BF0000F87FF0B5C1F30A5EAEF2FF36132E83B002460B460C464FEAD17507462EDC002E49DB3D49314103EA0100C5
:403EC00010432BD049080B4053EA02070CD04FF48023132E24EA010143FA06F444EA01040CBF4FF000470027324B214603EBC505D5E90045384622462B4600F0D3FACDE934
:403F00000001DDE9000122462B4600F0C9FA03B0F0BD332E06DDB6F5806F45D01046194603B0F0BDAEF2134E4FF0FF3121FA0EF10842F3D049080842D6D04FF0804320EAE1
:403F4000010143FA0EFE4EEA0107CDE721F0004101431946E4D0C3F3130343EA000CCCF1000343EA0C0C134B640C4FEA1C3C0CF4002C03EBC5036404D3E900674CEA040148
:403F800032463B4600F08EFACDE90001DDE9000132463B4600F084FA024621F0004141EAC57310461946BBE700F07CFAB8E700BFFFFF0F0010760200F8B5C1F30A560446F3
:403FC0000D460B46174606BB21F00043034325D000222F4B00F018FC2E4A044697420D460B462ADBC1F30A56363E40F2FE723E44964228DC002E12DD23F0FF4323F4E00398
:4040000043EA065520462946F8BD40F2FF729642EBD102460B4600F045FAF8BDF8BD16F1350F1DDA4CF250339F420CDC14A1D1E9000122462B4600F027FA11A3D3E900234C
:4040400000F0E2FBF8BD22460FA1D1E900012B4600F01AFA0CA3D3E9002300F0D5FBF8BD23F0FF4323F4E003363643EA0655204629460022084B00F0C7FBF8BDAFF300805D
:4040800059F3F8C21F6EA5019C7500883CE4377E00005043B03CFFFF0000903C000000002DE9F04FB1F5801F85B006460F460B465ADA024621F00044224300F0F780002989
:4040C000C0F279810022D64B00F09EFB0B460F46D44906468B426FF0350249DCC3F3130505F5152404F6647404F4801E8EF07F5181F440111B15A3F2FF3341EA05079C1852
:4041000030460022C84B394604EB1E5400F0C8F9AB1CC3F31303022B82468B464FF000022FDC002300F0D8FD002800F0C880002C00F04A81204600F001FBA5A3D3E90023F6
:4041400006460F4600F060FBA3A3D3E9002304460D463046394600F057FB02460B462046294600F09FF909E0AE4900228B42B5DD32463B463046394600F094F905B0BDE83E
:40418000F08F4FF0804300F08DF902460B465046594600F063FC064620460F4600F0CEFA3246CDE900013B4630463946CDE9026700F02AFB02460B468046894600F024FB16
:4041C00087A3D3E9002306460F4600F01DFB86A3D3E9002300F066F932463B4600F014FB83A3D3E9002300F05DF932463B4600F00BFB81A3D3E9002300F054F942464B462B
:4042000000F002FB7EA3D3E90023804689463046394600F0F9FA7CA3D3E9002300F042F932463B4600F0F0FA79A3D3E9002300F039F932463B4600F0E7FA0B460246494619
:40424000404600F02FF9A5F5C223C5F5D725A3F27A4351351D43002D8046894656DD0022724B5046594600F0CFFA52465B4600F0CBFA06460F46002C68D132463B464046FE
:40428000494600F00FF9DDE9022300F0BDFA02460B463046394600F003F902460B465046594600F0FDF805B0BDE8F08F0022002300205F4900F0D2FB05B0BDE8F08F56A343
:4042C000D3E900235046594600F09EFA02460B460020564900F0E4F8524606460F465B465046594600F090FA02460B463046394600F08AFA06460F46002C40F09B80024613
:404300000B465046594600F0CBF837E7002C00F0A5802FA3D3E90023DDE9000100F074FA42464B4604460D465046594600F0B8F8DDE9022300F068FA27A3D3E90023064652
:404340000F46DDE9000100F05FFA21E020A3D3E90023DDE9000100F057FA32463B4604460D464046494600F09DF8DDE9022300F04BFA19A3D3E9002380468946DDE90001E6
:4043800000F042FA02460B464046494600F08AF802460B463046394600F082F852465B4600F07EF802460B462046294600F078F805B0BDE8F08F02460B4600F071F800225F
:4043C000002300F04BFBD9E600200021D6E600BF0000E0FE422EE63F763C7935EF39EA3D44523EDF12F1C23FDE03CB966446C73F599322942449D23F935555555555E53F9E
:404400009FC678D0099AC33FAF788E1DC571CC3F04FA97999999D93F555555555555D53F00005043FFFFEF7F0000F03F0000E03F000050C3204600F081F90FA3D3E90023CC
:404440008046894600F0E0F90DA3D3E9002304460D464046494600F0D7F999E702460B465046594600F01CF8DDE9022300F0CCF913E700BFAFF300800000E0FE422EE63F9D
:40448000763C7935EF39EA3D03F0004321F0004242EA0301704700BF81F0004102E000BF83F0004330B54FEA41044FEA430594EA050F08BF90EA020F1FBF54EA000C55EAE6
:4044C000020C7FEA645C7FEA655C00F0E2804FEA5454D4EB5555B8BF6D420CDD2C4480EA020281EA030382EA000083EA010180EA020281EA0303362D88BF30BD11F0004FC0
:404500004FEA01314FF4801C4CEA113102D0404261EB410113F0004F4FEA03334CEA133302D0524263EB430394EA050F00F0A780A4F10104D5F1200E0DDB02FA0EFC22FA5F
:4045400005F2801841F1000103FA0EF2801843FA05F359410EE0A5F120050EF1200E012A03FA0EFC28BF4CF0020C43FA05F3C01851EBE37101F0004507D54FF0000EDCF113
:40458000000C7EEB00006EEB0101B1F5801F1BD3B1F5001F0CD349085FEA30004FEA3C0C04F101044FEA445212F5800F80F09A80BCF1004F08BF5FEA500C50F1000041EB4B
:4045C000045141EA050130BD5FEA4C0C404141EB010111F4801FA4F10104E9D191F0000F04BF01460020B1FA81F308BF2033A3F10B03B3F120020CDA0C3208DD02F1140C89
:40460000C2F10C0201FA0CF021FA02F10CE002F11402D8BFC2F1200C01FA02F120FA0CFCDCBF41EA0C019040E41AA2BF01EB0451294330BD6FEA04041F3C1CDA0C340EDCC1
:4046400004F11404C4F1200220FA04F001FA02F340EA030021FA04F345EA030130BDC4F10C04C4F1200220FA02F001FA04F340EA0300294630BD21FA04F0294630BD94F0E7
:40468000000F83F4801306BF81F480110134013D4EE77FEA645C18BF7FEA655C29D094EA050F08BF90EA020F05D054EA000C04BF1946104630BD91EA030F1EBF0021002038
:4046C00030BD5FEA545C05D14000494128BF41F0004130BD14F580043CBF01F5801130BD01F0004545F0FE4141F470014FF0000030BD7FEA645C1ABF194610467FEA655C95
:404700001CBF0B46024650EA013406BF52EA033591EA030F41F4002130BD00BF90F0000F04BF0021704730B54FF4806404F132044FF000054FF0000150E700BF90F0000F64
:4047400004BF0021704730B54FF4806404F1320410F0004548BF40424FF000013EE700BF42004FEAE2014FEA31014FEA02701FBF12F07F4393F07F4F81F06051704792F0B3
:40478000000F14BF93F07F4F704730B54FF4607401F0004521F0004120E700BF50EA010208BF704730B54FF000050AE050EA010208BF704730B511F0004502D5404261EB6C
:4047C00041014FF4806404F132045FEA915C3FF4DCAE4FF003025FEADC0C18BF03325FEADC0C18BF033202EBDC02C2F1200300FA03FC20FA02F001FA03FE40EA0E0021FA7F
:4048000002F11444C1E600BF70B54FF0FF0C4CF4E06C1CEA11541DBF1CEA135594EA0C0F95EA0C0F00F0DEF82C4481EA030621EA4C5123EA4C5350EA013518BF52EA03352B
:4048400041F4801143F4801338D0A0FB02CE4FF00005E1FB02E506F00042E0FB03E54FF00006E1FB03569CF0000F18BF4EF0010EA4F1FF04B6F5007F64F5407404D25FEA0C
:404880004E0E6D4146EB060642EAC62141EA55514FEAC52040EA5E504FEACE2EB4F1FD0C88BFBCF5E06F1ED8BEF1004F08BF5FEA500E50F1000041EB045170BD06F0004620
:4048C00046EA010140EA020081EA0301B4EB5C04C2BFD4EB0C0541EA045170BD41F480114FF0000E013C00F3AB8014F1360FDEBF002001F0004170BDC4F10004203C35DAF6
:404900000C341BDC04F11404C4F1200500FA05F320FA04F001FA05F240EA020001F0004221F0004110EBD37021FA04F642EB06015EEA430E08BF20EAD37070BDC4F10C0490
:40494000C4F1200500FA04F320FA05F001FA04F240EA020001F0004110EBD37041F100015EEA430E08BF20EAD37070BDC4F1200500FA05F24EEA020E20FA04F301FA05F2AD
:4049800043EA020321FA04F001F0004121FA04F220EA020000EBD3705EEA430E08BF20EAD37070BD94F0000F0FD101F00046400041EB010111F4801F08BF013CF7D041EAAD
:4049C000060195F0000F18BF704703F00046520043EB030313F4801F08BF013DF7D043EA0603704794EA0C0F0CEA135518BF95EA0C0F0CD050EA410618BF52EA4306D1D1AD
:404A000081EA030101F000414FF0000070BD50EA410606BF1046194652EA430619D094EA0C0F02D150EA013613D195EA0C0F05D152EA03361CBF104619460AD181EA030180
:404A400001F0004141F0FE4141F470014FF0000070BD41F0FE4141F4780170BD70B54FF0FF0C4CF4E06C1CEA11541DBF1CEA135594EA0C0F95EA0C0F00F0A7F8A4EB05042D
:404A800081EA030E52EA03354FEA013100F088804FEA03334FF0805545EA131343EA12634FEA022245EA111545EA10654FEA00260EF000419D4208BF964244F1FD0404F588
:404AC000407402D25B084FEA3202B61A65EB03055B084FEA32024FF480104FF4002CB6EB020E75EB030E22BFB61A754640EA0C005B084FEA3202B6EB020E75EB030E22BF8D
:404B0000B61A754640EA5C005B084FEA3202B6EB020E75EB030E22BFB61A754640EA9C005B084FEA3202B6EB020E75EB030E22BFB61A754640EADC0055EA060E18D04FEA68
:404B4000051545EA16754FEA06164FEAC30343EA52734FEAC2025FEA1C1CC0D111F4801F0BD141EA00014FF000004FF0004CB6E711F4801F04BF01430020B4F1FD0C88BF39
:404B8000BCF5E06F3FF6AFAEB5EB030C04BFB6EB020C5FEA500C50F1000041EB045170BD0EF0004E4EEA113114EB5C04C2BFD4EB0C0541EA045170BD41F480114FF0000E78
:404BC000013C90E645EA060E8DE60CEA135594EA0C0F08BF95EA0C0F3FF43BAF94EA0C0F0AD150EA01347FF434AF95EA0C0F7FF425AF104619462CE795EA0C0F06D152EA48
:404C000003353FF4FDAE1046194622E750EA410618BF52EA43067FF4C5AE50EA41047FF40DAF52EA43057FF4EBAE12E74FF0FF3C06E000BF4FF0010C02E000BF4FF0010C4E
:404C40004DF804CD4FEA410C7FEA6C5C4FEA430C18BF7FEA6C5C1BD001B050EA410C0CBF52EA430C91EA030F02BF90EA020F0020704710F1000F91EA030F58BF994208BF58
:404C800090422CBFD8176FEAE37040F0010070474FEA410C7FEA6C5C02D150EA013C07D14FEA430C7FEA6C5CD6D152EA033CD3D05DF8040B704700BF8446104662468C46E9
:404CC0001946634600E000BF01B5FFF7B7FF002848BF10F1000F01BD4DF808EDFFF7F4FF0CBF012000205DF808FB00BF4DF808EDFFF7EAFF34BF012000205DF808FB00BF04
:404D00004DF808EDFFF7E0FF94BF012000205DF808FB00BF4DF808EDFFF7CEFF94BF012000205DF808FB00BF4DF808EDFFF7C4FF34BF012000205DF808FB00BF4FEA410C4D
:404D40007FEA6C5C02D150EA013C0AD14FEA430C7FEA6C5C02D152EA033C02D14FF0000070474FF0010070474FEA410212F5001215D211D56FF47873B3EB625212D94FEAF0
:404D8000C12343F0004343EA505311F0004F23FA02F018BF404270474FF00000704750EA013005D111F0004008BF6FF0004070474FF00000704700BF4FEA4102B2F1E043CE
:404DC00024BFB3F5001CDCF1FE5C0DD901F0004C4FEAC0024CEA5070B2F1004F40EB830008BF20F00100704711F0804F21D113F13872BCBF01F00040704741F480114FEAD0
:404E00005252C2F11802C2F1200C10FA0CF320FA02F018BF40F001004FEAC1234FEAD32303FA0CFC40EA0C0023FA02F34FEA4303CCE77FEA625307D150EA01331EBF4FF0BA
:404E4000FE4040F44000704701F0004040F0FE4040F40000704700BF80F0004002E000BF81F0004142001FBF5FEA410392EA030F7FEA226C7FEA236C6AD04FEA1262D2EBAF
:404E80001363C1BFD218414048404140B8BF5B42192B88BF704710F0004F40F4000020F07F4018BF404211F0004F41F4000121F07F4118BF494292EA030F3FD0A2F101029B
:404EC00041FA03FC10EB0C00C3F1200301FA03F100F0004302D5494260EB4000B0F5000F13D3B0F1807F06D340084FEA310102F10102FE2A51D2B1F1004F40EBC25008BF8F
:404F000020F0010040EA03007047490040EB000010F4000FA2F10102EDD1B0FA80FCACF1080CB2EB0C0200FA0CF0AABF00EBC25052421843BCBFD0401843704792F0000FA6
:404F400081F4000106BF80F400000132013BB5E74FEA41037FEA226C18BF7FEA236C21D092EA030F04D092F0000F08BF0846704790EA010F1CBF0020704712F07F4F04D1A3
:404F8000400028BF40F00040704712F100723CBF00F50000704700F0004343F0FE4040F4000070477FEA226216BF08467FEA23630146420206BF5FEA412390EA010F40F43E
:404FC000800070474FF0000304E000BF10F0004348BF40425FEA000C08BF704743F0964301464FF000001CE050EA010208BF70474FF000030AE000BF50EA010208BF704707
:4050000011F0004302D5404261EB41015FEA010C02BF84460146002043F0B64308BFA3F18053A3F50003BCFA8CF2083AA3EBC25310DB01FA02FC634400FA02FCC2F1200297
:40504000BCF1004F20FA02F243EB020008BF20F00100704702F1200201FA02FCC2F1200250EA4C0021FA02F243EB020008BF20EADC7070474FF0FF0C1CEAD0521EBF1CEA96
:40508000D15392EA0C0F93EA0C0F6FD01A4480EA010C400218BF5FEA41211ED04FF0006343EA501043EA5111A0FB01310CF00040B1F5000F3EBF490041EAD3715B0040EA21
:4050C000010062F17F02FD2A1DD8B3F1004F40EBC25008BF20F00100704790F0000F0CF0004C08BF49024CEA502040EA51207F3AC2BFD2F1FF0340EAC250704740F40000B0
:405100004FF00003013A5DDC12F1190FDCBF00F000407047C2F10002410021FA02F1C2F1200200FA02FC5FEA310040F1000053EA4C0308BF20EADC70704792F0000F00F0AF
:40514000004C02BF400010F4000F013AF9D040EA0C0093F0000F01F0004C02BF490011F4000F013BF9D041EA0C018FE70CEAD15392EA0C0F18BF93EA0C0F0AD030F0004C8F
:4051800018BF31F0004CD8D180EA010000F00040704790F0000F17BF90F0004F084691F0000F91F0004F14D092EA0C0F01D142020FD193EA0C0F03D14B0218BF084608D1A6
:4051C00080EA010000F0004040F0FE4040F40000704740F0FE4040F4400070474FF0FF0C1CEAD0521EBF1CEAD15392EA0C0F93EA0C0F69D0A2EB030280EA010C49024FEAB4
:40520000402037D04FF0805343EA111143EA10130CF000408B4238BF5B0042F17D024FF4000C8B4224BF5B1A40EA0C00B3EB510F24BFA3EB510340EA5C00B3EB910F24BF35
:40524000A3EB910340EA9C00B3EBD10F24BFA3EBD10340EADC001B0118BF5FEA1C1CE0D1FD2A3FF650AF8B4240EBC25008BF20F0010070470CF0004C4CEA50207F32C2BF44
:40528000D2F1FF0340EAC250704740F400004FF00003013A37E792F0000F00F0004C02BF400010F4000F013AF9D040EA0C0093F0000F01F0004C02BF490011F4000F013B23
:4052C000F9D041EA0C0195E70CEAD15392EA0C0F08D142027FF47DAF93EA0C0F7FF470AF084676E793EA0C0F04D14B023FF44CAF08466EE730F0004C18BF31F0004CCAD119
:4053000030F000427FF45CAF31F000437FF43CAF5FE700BF4FF0FF3C06E000BF4FF0010C02E000BF4FF0010C4DF804CD4FEA40024FEA41037FEA226C18BF7FEA236C11D0B9
:4053400001B052EA530C18BF90EA010F58BFB2EB030088BFC81738BF6FEAE17018BF40F0010070477FEA226C02D15FEA402C05D17FEA236CE4D15FEA412CE1D05DF8040B76
:40538000704700BF844608466146FFE70FB5FFF7C9FF002848BF10F1000F0FBD4DF808EDFFF7F4FF0CBF012000205DF808FB00BF4DF808EDFFF7EAFF34BF012000205DF85D
:4053C00008FB00BF4DF808EDFFF7E0FF94BF012000205DF808FB00BF4DF808EDFFF7D2FF94BF012000205DF808FB00BF4DF808EDFFF7C8FF34BF012000205DF808FB00BF43
:405400004FEA4002B2F1FE4F0FD34FF09E03B3EB12620DD94FEA002343F0004310F0004F23FA02F018BF404270474FF00000704712F1610F01D1420205D110F0004008BFAB
:405440006FF0004070474FF00000704742000ED2B2F1FE4F0BD34FF09E03B3EB126209D44FEA002343F0004323FA02F070474FF00000704712F1610F01D1420202D14FF0F8
:40548000FF3070474FF00000704700BF014B1868704700BF5481FF1F0E4B70B51E460E4C0025E41AA410A54204D056F8253098470135F8E722F0B6F8084B094C1E46E41AED
:4054C000A4100025A54204D056F8253098470135F8E770BD30760200307602003076020038760200024B0146186800F06BB800BF5481FF1F024B0146186800F017B800BF41
:405500005481FF1F10B5431E0A44914204D011F8014B03F8014FF8E710BD03460244934202D003F8011BFAE77047000038B50546002944D051F8043C0C1F002BB8BFE41865
:4055400000F0AEF81E4A1368114613B96360146030E0A3420DD92268A018834201BF18685B681218226063600C6023E0A24203D813465A68002AF9D118681918A1420BD157
:405580002168014458188242196013D110685268014419605A600DE002D90C232B6009E021686018824201BF106852680918216062605C602846BDE8384000F072B838BD06
:4055C0009CD9FF1F70B5CD1C25F0030508350C2D38BF0C25002D064601DBA94202D90C23336046E000F05CF8234B1C681A462146A1B10B685B1B0ED40B2B03D90B60CC18D1
:40560000CD501EE08C420BBF63684B681360636018BF0C4615E00C464968E9E7174C23681BB9304600F02CF820602946304600F027F8431C18D0C41C24F00304A0420DD150
:405640002560304600F02DF804F10B00231D20F00700C31A0ED05A42E25070BD211A304600F00EF80130EBD10C233360304600F018F8002070BD00BF9CD9FF1F98D9FF1F13
:4056800038B5064C0023054608462360FBF78EF9431C02D1236803B12B6038BDA8D9FF1F704770470000000000000000000000003FABCC94D6DFE23E180AD80E46EC033F5A
:4056C000809F71E14048163F3D9E961FB8CA233FFC6D4F90D8EE2E3F92E9D0E97937363FB55208E412473E3F4643C6A354C2433F7978CF81E508493F06137F1475E64E3F77
:40570000F2B6D26BB3B1523F0D17B9A7AB3B563FCD04C3B986195A3F39252026E1425E3FE7525C55F65D613F4643C6A354C2633FB9E34D7E8B4E663F821DFF058200693F6E
:405740001D1EC2F869DC6B3F0FB8AE9811DE6E3FAB75E272BC02713FB972F6CE68AB723F713C9F01F566743FD4D2DC0A6135763FA14CA3C9C518783F1893FE5E0A0F7A3F0F
:405780003BA6EECA2E187C3FC79C67EC4B367E3F50AA7D3A1E33803FF0F78BD99255813FE7ABE4637781823F32C687D9CBB6833F834C327216F6843F2A3927F6D03E863FE6
:4057C000D591239D8191873F8656276728EE883FDD7BB8E4B8538A3F390D51853FC38B3F9A0AF148BC3C8D3F506EDBF7A8BF8E3F2E1C08C90226903F5FB4C70BE9F0903FB0
:40580000BB7F2C4487C0913F1901158E2095923FA2B5A2CD716E933F569DD5027B4C943F35B8AD2D3C2F953F1689096AF816963F4A0A2C802903973FA9BEF38B12F4973FCB
:405840000B293FA9F6E9983FBF4351A04FE4993F9F91088D60E39A3FA912656F29E79B3FDEC66647AAEF9C3F3EAE0D15E3FC9D3FF1457BBC900E9F3F6808C72C7B12A03FB8
:405880006C0723F609A0A03F9A5E622CD32FA13F5D4F745DF8C1A13FB6D958897956A23F38BC202235EDA23F5038BBB54C86A33F910C39B69E21A43FFC389A232BBFA43F65
:4058C000FCFECD8B135FA53F261DE5603601A63F7993DFA293A5A63FF661BD512B4CA73F08CA6DFB1EF5A73F448A01124DA0A83F3D618907944DA93FCCD1E3F736FDA93F7F
:40590000849A215514AFAA3FFB7953910A63AB3F06F357C85C19AC3FCF8250DEC7D1AC3FC26A2C616D8CAD3FDEAAEB504D49AE3FB8019F1F4608AF3FBCB0355B79C9AF3F3B
:405940003F3BE0BA6246B03F344A97FE25A9B03F8864C8B1F50CB13F3B8A73D4D171B13F035C902DCBD7B13F2A3927F6D03EB23F65C22FF5F3A6B23F4AB6BA9C1210B33FAC
:405980008DB5BFB33D7AB33FE560360186E5B33FE6762FF7C951B43F4698A25C1ABFB43F05C58F31772DB53F22FDF675E09CB53F9E40D829560DB63FC4EE3B86C77EB63F7A
:4059C0009207228B34F1B63FBF2B82FFAD64B73F4B5B5CE333D9B73F7FF5B86FB54EB83F5DFA97A432C5B83FE469F981AB3CB93FC9E4D4CE30B5B93FA2293BFDA02EBA3F3D
:405A0000D9791B9B1DA9BA3F0394861A8524BB3FD7187442E8A0BB3F09A9DBD9571EBC3F7862D68BA19CBC3F46274BADF71BBD3F07B64AB0389CBD3F71AFCC5B751DBE3F85
:405A4000CD72D9E89C9FBE3F1D007157AF22BF3F16F88A6EBDA6BF3FA60C1CD0D215C03F95D233BDC458C03F7EFD101B2C9CC03F618DB3E908E0C03F3D821B295B24C13F7D
:405A800012DC48D92269C13F86CABF9657AEC13FF31DFCC401F4C13F5AD6FD63213AC23F60234910AE80C23F0305DEC9A7C7C23FA14B38F4160FC33FDD26DC2BF356C33F34
:405AC000B796C9703C9FC33F8B6B7C26FBE7C33FA304FD851E31C43F5932C7F2AE7AC43FAEF4DA6CACC4C43FA14B38F4160FC53FD8666325E659C53FAD16D86322A5C53F6F
:405B0000215B96AFCBF0C53FD86322A5D93CC63FD3307C444C89C63F12C2A38D23D6C63FEFE714E46723C73FB401D8800871C73F18B0E42A16BFC73F6552431B800DC83FE6
:405B4000F5B86FB54E5CC83FC9E369F981ABC83FE1D231E719FBC83FE1B54B1B0E4BC93FCA8CB7955E9BC93FF627F1B913ECC93FB0E600C11C3DCA3F083A5AD5928ECA3F5B
:405B8000EEB089CC5CE0CA3FBD1B0B0A8332CB3F19AA622AFD84CB3FB9FC87F4DBD7CB3FE77283A10E2BCC3FFDDCD0949D7ECC3FA16AF46A80D2CC3F2DEC6987BF26CD3F57
:405BC0004791B586527BCD3FEF59D76839D0CD3F2446CF2D7425CE3FE7559DD5027BCE3F37894160E5D0CE3F15E0BBCD1B27CF3F268A90BA9D7DCF3FC5573B8A73D4CF3F91
:405C000079245E9ECE15D03FA8C64B378941D03F7192E68F696DD03FD3872EA86F99D03FFC8EE1B19FC5D03F90D78349F1F1D03FEC3191D26C1ED13FB3CD8DE9094BD13F45
:405C4000E7AA798EC877D13FE199D024B1A4D13F19E25817B7D1D13F193C4CFBE6FED13F56EF703B342CD23F00E48409A359D23F430246973787D23FC4793881E9B4D23F64
:405C8000DF1AD82AC1E2D23F3815A930B610D33FFC5069C4CC3ED33F00E65AB4006DD33F41D47D00529BD33FEF0390DAC4C9D33F0875914259F8D33F325706D50627D43F4C
:405CC0009B92ACC3D155D43F4227840EBA84D43F27158DB5BFB3D43F1D740987DEE2D43F522CB7B41A12D53FC53D963E7441D53F48C0E8F2E670D53FDDB3AED172A0D53F43
:405D00008318E8DA17D0D53F39EE940ED6FFD53F0135B56CAD2FD63FD9EC48F59D5FD63FC21550A8A78FD63F8FC70C54C6BFD63F3F027FF8F9EFD63F00AE64C74620D73F8A
:405D4000A4E2FF8EA850D73F2CA0504F1F81D73FC4CE143AAFB1D73F139ED0EB4FE2D73F45F641960513D83F2CEFAA07CC43D83F255987A3AB74D83FA67B9DD497A5D83FE2
:405D80000B2769FE98D6D83F26732CEFAA07D93FF65FE7A6CD38D93FAAD55757056AD93FE603029D499BD93FD8D2A3A99ECCD93F535A7F4B00FED93F848252B4722FDA3F46
:405DC0006A4B1DE4F560DA3FD9CC21A98592DA3FD106600322C4DA3F51F9D7F2CAF5DA3F59A489778027DB3FEA0775914259DB3F03249A40118BDB3F77103B53E8BCDB3FC8
:405E000074B515FBCBEEDB3FCC2A6C06B820DC3FAC58FCA6B052DC3FB96E4A79AD84DC3F4F3DD2E0B6B6DC3F40DCD5ABC8E8DC3F5E6397A8DE1ADD3FD8BAD408FD4CDD3FEF
:405E4000ACE28DCC237FDD3FDCDAC2F352B1DD3F0BD3F71A82E3DD3F959BA8A5B915DE3F4D4C1762F547DE3F32E54350357ADE3F45662E7079ACDE3F85CFD6C1C1DEDE3F08
:405E8000C5387F130A11DF3F338AE5965643DF3FA1DB4B1AA375DF3F3C1570CFF3A7DF3FD74E948444DADF3F3944DC9C4A06E03F07616EF7721FE03FBE8921399938E03FE1
:405EC0008BA6B393C151E03F42CF66D5E76AE03FF9F719170E84E03F992CEE3F329DE03F226DE34F54B6E03FACADD85F76CFE03F0806103E94E8E03F635E471CB201E13FC1
:405F000092CEC0C8CB1AE13FA94A5B5CE333E13F94DE37BEF64CE13F677E35070866E13F242A5437177FE13F9CF9D51C2098E13FFED478E926B1E13F32C85D8429CAE13F17
:405F400022DFA5D425E3E13FFC010F0C20FCE13F9148DBF81315E23FE1B20A9B012EE23F05357C0BEB46E23FFBCE2F4AD05FE23F96986725AD78E23F037AE1CE8591E23FA6
:405F80002C7FBE2D58AAE23FFAB31F2922C3E23F840CE4D9E5DBE23FCA880B40A3F4E23FB534B742580DE33F5C04C6FA0626E33FA703594FAD3EE33F983270404B57E33F36
:405FC0004485EAE6E26FE33F7F130A117088E33F5FD1ADD7F4A0E33FE4BED53A71B9E33FF7E7A221E3D1E33FAF40F4A44CEAE33FF6D4EAABAB02E43FE198654F021BE43F75
:406000005B9885764E33E43F4CDF6B088E4BE43FE355D636C563E43FF01307D0EF7BE43FA301BC051294E43FCE3637A627ACE43F70B378B130C4E43FA06B5F402FDCE43FFE
:40604000486B0C3A21F4E43F68B27F9E060CE53FFF40B96DDF23E53F0D17B9A7AB3BE53F94347F4C6B53E53F91990B5C1E6BE53FF0517FBDC282E53FC651B9895A9AE53F60
:40608000FDA4DAA7E3B1E53F944BE3175EC9E53FA439B2F2CBE0E53F147B681F2BF8E53FCE1B2785790FE63FFF03AC55BB26E63F7B4B395FEC3DE63F58E6ADBA0E55E63F11
:4060C00095D40968226CE63F1D226E4E2583E63FEECEDA6D179AE63F0ADB4FC6F8B0E63F863AAC70CBC7E63F3605323B8BDEE63F46239F573CF5E63F8AAC3594DA0BE73F23
:406100001895D4096822E73FF0DC7BB8E438E73FFC8F4C874E4FE73F3AAE4676A565E73FC32B499EEB7BE73F7F1475E61E92E73F6E68CA4E3FA8E73F7B336ABE4ABEE73FCB
:40614000D15D126745D4E73F5AF3E32F2DEAE73F000000000000E83FD97745F0BF15E83FCF66D5E76A2BE83FF9C08EFF0241E83F3E92921E8656E83FA1DAE044F46BE83FF1
:40618000209A79724D81E83FBBD05CA79196E83F747E8AE3C0ABE83F48A30227DBC0E83F234BE658DED5E83F1A6A1492CCEAE83F2E008DD2A5FFE83F481971016814E93F46
:4061C00067B5C01E1329E93F8DD47B2AA73DE93FCF6A813D2652E93F009013268C66E93F4D2CF015DD7AE93F8A5759DB148FE93FCD052E8F35A3E93F15376E313FB7E93F40
:406200004DF73AA92FCBE93F8A3A730F09DFE93FB70C384BC9F2E93FD26D895C7006EA3FDD5D6743FE19EA3FEED0B018752DEA3FEDD286C3D240EA3FC66F0A2B1554EA3F1F
:406240008D9B1A683E67EA3F4356B77A4E7AEA3FE89FE062458DEA3F6684B70721A0EA3FD3F71A82E3B2EA3F18062CB98AC5EA3F4DA3C9C518D8EA3F43E7357689EAEA3FEE
:4062800028BA2EFCE0FCEA3FE527D53E1D0FEB3F7B30293E3E21EB3FD2DF4BE14133EB3F191EFB592C45EB3F21037976F956EB3F0283A44FAB68EB3FA4A99ECC3F7AEB3F41
:4062C0001E6B4606B98BEB3F5BD3BCE3149DEB3F58E2016553AEEB3F2E8CF4A276BFEB3FC6DCB5847CD0EB3F20D4450A65E1EB3F3B72A43330F2EB3F17B7D100DE02EC3FBB
:40630000B6A2CD716E13EC3FFF40B96DDF23EC3F0A86730D3334EC3FD671FC506944EC3F4D10751F8054EC3F8655BC917964EC3F6A4DF38E5374EC3F10ECF82F1084EC3F50
:40634000603DEE5BAD93EC3F444DF4F928A3EC3FEA03C93B87B2EC3F52616C21C8C1EC3F4E7D2079E7D0EC3FDE57E542E5DFEC3F30D978B0C5EEEC3F2C0DFCA886FDEC3FE4
:40638000BDFF8F13260CED3FF8A41309A61AED3FC808A8700429ED3F431F2C634337ED3F51F4C0C76045ED3F0B7C45B75E53ED3F59C2DA183B61ED3F3BC780ECF56EED3FD6
:4063C000B18A37328F7CED3FBB0CFFE9068AED3F7041B62C5F97ED3FA3409FC893A4ED3F69FE98D6A6B1ED3FDB6E826F9ABEED3FCAA99D616ACBED3F36AFEAAC16D8ED3F78
:406400004D672783A3E4ED3FE2E995B20CF1ED3FF436363B52FDED3F9A42E7357609EE3FD40CA9A27815EE3F8CA19C685721EE3FC100C287122DEE3F8A1EF818AC38EE3F5C
:40644000D10660032244EE3F95B9F946744FEE3FD636C5E3A25AEE3F957EC2D9AD65EE3FD190F1289570EE3F8B6D52D1587BEE3FC214E5D2F885EE3F7786A92D7590EE3F05
:40648000A9C29FE1CD9AEE3F58C9C7EE02A5EE3F6EA6423C12AFEE3F014EEFE2FDB8EE3F12C0CDE2C5C2EE3F8908FF2268CCEE3F7E1B62BCE6D5EE3FDA0418963FDFEE3F73
:4064C000B2B8FFC874E8EE3F0937195586F1EE3FAF97A60870FAEE3FD2C265153603EF3F5DC47762D60BEF3F6490BB085314EF3FD33252EFA91CEF3FA8AB3B16DB24EF3F31
:40650000E3FA777DE62CEF3F86200725CC34EF3F8F1CE90C8C3CEF3F15E3FC4D2844EF3FEB8B84B69C4BEF3F280B5F5FEB52EF3FCC608C48145AEF3FED80EB8A1961EF3F92
:406540005E83BEF4F667EF3F1F680586AC6EEF3F5D177E703E75EF3F029D499BAA7BEF3FF70489EDEE81EF3F52431B800D88EF3FFE63213A048EEF3F105B7A34D593EF3F5E
:406580008928266F8099EF3F68CC24EA059FEF3F9752978C63A4EF3F2DAF5C6F9BA9EF3F13EE9579ABAEEF3F490F43AB93B3EF3FFDFA213658B8EF3FE9D495CFF2BCEF3F07
:4065C0003C855CA967C1EF3FF60B76C3B6C5EF3F00750305DEC9EF3F59C0046EDDCDEF3F19E25817B7D1EF3F2AE620E868D5EF3F8ACC5CE0F2D8EF3F5089EB1857DCEF3F7D
:406600006728EE7893DFEF3FCEA96400A8E2EF3F9B012EC896E5EF3FB83B6BB75DE8EF3F25581CCEFCEAEF3FE256410C74EDEF3FEF37DA71C3EFEF3F63EFC517EDF1EF3F55
:40664000278925E5EEF3EF3F3A05F9D9C8F5EF3FB4571F0F7DF7EF3F6798DA5207F9EF3F81AFE8D66BFAEF3FEBA86A82A8FBEF3FA5846055BDFCEF3FAF42CA4FAAFDEF3FAC
:4066800008E3A7716FFEEF3FB265F9BA0CFFEF3FC2BE9D4484FFEF3F22FAB5F5D3FFEF3FD31742CEFBFFEF3FD31742CEFBFFEF3F22FAB5F5D3FFEF3FC2BE9D4484FFEF3F45
:4066C000B265F9BA0CFFEF3F08E3A7716FFEEF3FAF42CA4FAAFDEF3FA5846055BDFCEF3FEBA86A82A8FBEF3F81AFE8D66BFAEF3F6798DA5207F9EF3FB4571F0F7DF7EF3F50
:406700003A05F9D9C8F5EF3F278925E5EEF3EF3F63EFC517EDF1EF3FEF37DA71C3EFEF3FE256410C74EDEF3F25581CCEFCEAEF3FB83B6BB75DE8EF3F9B012EC896E5EF3FB7
:40674000CEA96400A8E2EF3F6728EE7893DFEF3F5089EB1857DCEF3F8ACC5CE0F2D8EF3F2AE620E868D5EF3F19E25817B7D1EF3F59C0046EDDCDEF3F00750305DEC9EF3FD2
:40678000F60B76C3B6C5EF3F3C855CA967C1EF3FE9D495CFF2BCEF3FFDFA213658B8EF3F490F43AB93B3EF3F13EE9579ABAEEF3F2DAF5C6F9BA9EF3F9752978C63A4EF3FA7
:4067C00068CC24EA059FEF3F8928266F8099EF3F105B7A34D593EF3FFE63213A048EEF3F52431B800D88EF3FF70489EDEE81EF3F029D499BAA7BEF3F5D177E703E75EF3FB3
:406800001F680586AC6EEF3F5E83BEF4F667EF3FED80EB8A1961EF3FCC608C48145AEF3F280B5F5FEB52EF3FEB8B84B69C4BEF3F15E3FC4D2844EF3F8F1CE90C8C3CEF3F28
:4068400086200725CC34EF3FE3FA777DE62CEF3FA8AB3B16DB24EF3FD33252EFA91CEF3F6490BB085314EF3F5DC47762D60BEF3FD2C265153603EF3FAF97A60870FAEE3FA8
:406880000937195586F1EE3FB2B8FFC874E8EE3FDA0418963FDFEE3F7E1B62BCE6D5EE3F8908FF2268CCEE3F12C0CDE2C5C2EE3F014EEFE2FDB8EE3F6EA6423C12AFEE3F8C
:4068C00058C9C7EE02A5EE3FA9C29FE1CD9AEE3F7786A92D7590EE3FC214E5D2F885EE3F8B6D52D1587BEE3FD190F1289570EE3F957EC2D9AD65EE3FD636C5E3A25AEE3FA2
:4069000095B9F946744FEE3FD10660032244EE3F8A1EF818AC38EE3FC100C287122DEE3F8CA19C685721EE3FD40CA9A27815EE3F9A42E7357609EE3FF436363B52FDED3F59
:40694000E2E995B20CF1ED3F4D672783A3E4ED3F36AFEAAC16D8ED3FCAA99D616ACBED3FDB6E826F9ABEED3F69FE98D6A6B1ED3FA3409FC893A4ED3F7041B62C5F97ED3FEC
:40698000BB0CFFE9068AED3FB18A37328F7CED3F3BC780ECF56EED3F59C2DA183B61ED3F0B7C45B75E53ED3F51F4C0C76045ED3F431F2C634337ED3FC808A8700429ED3FEA
:4069C000F8A41309A61AED3FBDFF8F13260CED3F2C0DFCA886FDEC3F30D978B0C5EEEC3FDE57E542E5DFEC3F4E7D2079E7D0EC3F52616C21C8C1EC3FEA03C93B87B2EC3FC3
:406A0000444DF4F928A3EC3F603DEE5BAD93EC3F10ECF82F1084EC3F6A4DF38E5374EC3F8655BC917964EC3F4D10751F8054EC3FD671FC506944EC3F0A86730D3334EC3F58
:406A4000FF40B96DDF23EC3FB6A2CD716E13EC3F17B7D100DE02EC3F3B72A43330F2EB3F20D4450A65E1EB3FC6DCB5847CD0EB3F2E8CF4A276BFEB3F58E2016553AEEB3F4A
:406A80005BD3BCE3149DEB3F1E6B4606B98BEB3FA4A99ECC3F7AEB3F0283A44FAB68EB3F21037976F956EB3F191EFB592C45EB3FD2DF4BE14133EB3F7B30293E3E21EB3FD4
:406AC000E527D53E1D0FEB3F28BA2EFCE0FCEA3F43E7357689EAEA3F4DA3C9C518D8EA3F18062CB98AC5EA3FD3F71A82E3B2EA3F6684B70721A0EA3FE89FE062458DEA3F13
:406B00004356B77A4E7AEA3F8D9B1A683E67EA3FC66F0A2B1554EA3FEDD286C3D240EA3FEED0B018752DEA3FDD5D6743FE19EA3FD26D895C7006EA3FB70C384BC9F2E93F82
:406B40008A3A730F09DFE93F4DF73AA92FCBE93F15376E313FB7E93FCD052E8F35A3E93F8A5759DB148FE93F4D2CF015DD7AE93F009013268C66E93FCF6A813D2652E93F87
:406B80008DD47B2AA73DE93F67B5C01E1329E93F481971016814E93F2E008DD2A5FFE83F1A6A1492CCEAE83F234BE658DED5E83F48A30227DBC0E83F747E8AE3C0ABE83F42
:406BC000BBD05CA79196E83F209A79724D81E83FA1DAE044F46BE83F3E92921E8656E83FF9C08EFF0241E83FCF66D5E76A2BE83FD97745F0BF15E83F000000000000E83F73
:406C00005AF3E32F2DEAE73FD15D126745D4E73F7B336ABE4ABEE73F6E68CA4E3FA8E73F7F1475E61E92E73FC32B499EEB7BE73F3AAE4676A565E73FFC8F4C874E4FE73FB9
:406C4000F0DC7BB8E438E73F1895D4096822E73F8AAC3594DA0BE73F46239F573CF5E63F3605323B8BDEE63F863AAC70CBC7E63F0ADB4FC6F8B0E63FEECEDA6D179AE63F71
:406C80001D226E4E2583E63F95D40968226CE63F58E6ADBA0E55E63F7B4B395FEC3DE63FFF03AC55BB26E63FCE1B2785790FE63F147B681F2BF8E53FA439B2F2CBE0E53FAE
:406CC000944BE3175EC9E53FFDA4DAA7E3B1E53FC651B9895A9AE53FF0517FBDC282E53F91990B5C1E6BE53F94347F4C6B53E53F0D17B9A7AB3BE53FFF40B96DDF23E53F74
:406D000068B27F9E060CE53F486B0C3A21F4E43FA06B5F402FDCE43F70B378B130C4E43FCE3637A627ACE43FA301BC051294E43FF01307D0EF7BE43FE355D636C563E43F7F
:406D40004CDF6B088E4BE43F5B9885764E33E43FE198654F021BE43FF6D4EAABAB02E43FAF40F4A44CEAE33FF7E7A221E3D1E33FE4BED53A71B9E33F5FD1ADD7F4A0E33F8E
:406D80007F130A117088E33F4485EAE6E26FE33F983270404B57E33FA703594FAD3EE33F5C04C6FA0626E33FB534B742580DE33FCA880B40A3F4E23F840CE4D9E5DBE23F09
:406DC000FAB31F2922C3E23F2C7FBE2D58AAE23F037AE1CE8591E23F96986725AD78E23FFBCE2F4AD05FE23F05357C0BEB46E23FE1B20A9B012EE23F9148DBF81315E23F5A
:406E0000FC010F0C20FCE13F22DFA5D425E3E13F32C85D8429CAE13FFED478E926B1E13F9CF9D51C2098E13F242A5437177FE13F677E35070866E13F94DE37BEF64CE13FDF
:406E4000A94A5B5CE333E13F92CEC0C8CB1AE13F635E471CB201E13F0806103E94E8E03FACADD85F76CFE03F226DE34F54B6E03F992CEE3F329DE03FF9F719170E84E03FC8
:406E800042CF66D5E76AE03F8BA6B393C151E03FBE8921399938E03F07616EF7721FE03F3944DC9C4A06E03FD74E948444DADF3F3C1570CFF3A7DF3FA1DB4B1AA375DF3F24
:406EC000338AE5965643DF3FC5387F130A11DF3F85CFD6C1C1DEDE3F45662E7079ACDE3F32E54350357ADE3F4D4C1762F547DE3F959BA8A5B915DE3F0BD3F71A82E3DD3FF0
:406F0000DCDAC2F352B1DD3FACE28DCC237FDD3FD8BAD408FD4CDD3F5E6397A8DE1ADD3F40DCD5ABC8E8DC3F4F3DD2E0B6B6DC3FB96E4A79AD84DC3FAC58FCA6B052DC3F16
:406F4000CC2A6C06B820DC3F74B515FBCBEEDB3F77103B53E8BCDB3F03249A40118BDB3FEA0775914259DB3F59A489778027DB3F51F9D7F2CAF5DA3FD106600322C4DA3F92
:406F8000D9CC21A98592DA3F6A4B1DE4F560DA3F848252B4722FDA3F535A7F4B00FED93FD8D2A3A99ECCD93FE603029D499BD93FAAD55757056AD93FF65FE7A6CD38D93F0C
:406FC00026732CEFAA07D93F0B2769FE98D6D83FA67B9DD497A5D83F255987A3AB74D83F2CEFAA07CC43D83F45F641960513D83F139ED0EB4FE2D73FC4CE143AAFB1D73FF7
:407000002CA0504F1F81D73FA4E2FF8EA850D73F00AE64C74620D73F3F027FF8F9EFD63F8FC70C54C6BFD63FC21550A8A78FD63FD9EC48F59D5FD63F0135B56CAD2FD63F3F
:4070400039EE940ED6FFD53F8318E8DA17D0D53FDDB3AED172A0D53F48C0E8F2E670D53FC53D963E7441D53F522CB7B41A12D53F1D740987DEE2D43F27158DB5BFB3D43FC6
:407080004227840EBA84D43F9B92ACC3D155D43F325706D50627D43F0875914259F8D33FEF0390DAC4C9D33F41D47D00529BD33F00E65AB4006DD33FFC5069C4CC3ED33FC4
:4070C0003815A930B610D33FDF1AD82AC1E2D23FC4793881E9B4D23F430246973787D23F00E48409A359D23F56EF703B342CD23F193C4CFBE6FED13F19E25817B7D1D13FDD
:40710000E199D024B1A4D13FE7AA798EC877D13FB3CD8DE9094BD13FEC3191D26C1ED13F90D78349F1F1D03FFC8EE1B19FC5D03FD3872EA86F99D03F7192E68F696DD03FCA
:40714000A8C64B378941D03F79245E9ECE15D03FC5573B8A73D4CF3F268A90BA9D7DCF3F15E0BBCD1B27CF3F37894160E5D0CE3FE7559DD5027BCE3F2446CF2D7425CE3F2F
:40718000EF59D76839D0CD3F4791B586527BCD3F2DEC6987BF26CD3FA16AF46A80D2CC3FFDDCD0949D7ECC3FE77283A10E2BCC3FB9FC87F4DBD7CB3F19AA622AFD84CB3F9D
:4071C000BD1B0B0A8332CB3FEEB089CC5CE0CA3F083A5AD5928ECA3FB0E600C11C3DCA3FF627F1B913ECC93FCA8CB7955E9BC93FE1B54B1B0E4BC93FE1D231E719FBC83FA4
:40720000C9E369F981ABC83FF5B86FB54E5CC83F6552431B800DC83F18B0E42A16BFC73FB401D8800871C73FEFE714E46723C73F12C2A38D23D6C63FD3307C444C89C63FA8
