:4000000000800020110000002D0600002D06000008B5044B1A6803F53F5302331A6000F00DFB00BFFA46004010B5054C237833B9044B13B10448AFF300800123237010BD09
:400040005081FF1F00000000C8140000084B10B51BB108490848AFF300800848036803B910BD074B002BFBD0BDE81040184700BF000000005481FF1FC8140000C880FF1F3A
:400080000000000008B500F0AFFB054B93F802381BB90122024B83F8022800F077FB08BD6C81FF1F08B500F015FD732803D10122044B83F803286F2803D10222014B83F81D
:4000C000032808BD6C81FF1F38B541F6FF734FF480420121022000F0A3FC0C4D287000F02BFC0B4C20700623FE224FF4006100F03DFC084A92B244F61061207800F04AFC83
:400100002178287800F0EAFB38BD00BF8D89FF1F8C89FF1F6E81FF1F094A002382F802380121117082F8033806E0054A02EB43020021518001331BB2B3F5806FF5DB70478F
:400140006C81FF1F38B562B601F08CF801F014F83B4800F00DFB3B4800F038FB00F0B4FE00F0BCF800F074F8FFF7D6FFFFF7ACFF354B93F80238012B08D013B1022B27D09D
:40018000F6E70121022000F079F8F1E70121084600F074F800F0ACFE01212C4B187800F043FB01F039F90028E2D00021012000F065F800F0A5FE254B187800F051FB0222A9
:4001C000214B83F802280121084600F057F8CFE71D4B1B780A2B20D81B4B93F80338012B1BD1194C012184F80218002000F046F8002584F8035809E0134C04EB4504A0781E
:4002000000F06EFCE07800F06BFC0135B5F5806FF2DB0D4A1378013313700B4B1B780B2BA6D1094B93F80338022BA1D1064B002283F8022883F8032801221A7098E700BF88
:4002400085000000A50000006C81FF1F8D89FF1F10B500F031FC074C204600F04DFC204600F04AFC044800F047FC204600F044FC002010BDCC140000D014000038B50446A8
:400280000D46032824D8DFE800F00209101E084600F03CFA104B1D55002038BD084600F029FA0D4B1D55002038BD084600F03AFA094B1D55002038BD29462046FFF7DEFF49
:4002C0000134E4B200E00024022CF5D9002038BD6FF0130038BD00BF7089FF1F38B50024254609E00021064B19552046FFF7C6FF00B105460134E4B2022CF3D9284638BD57
:400300007089FF1FFEE700BFF0B40022174611E050F82760F3B226F0FF0608E001EB420511F812406D78A5550132013BDBB2002BF4D101371C2FEBD9F0BC7047114B1B7885
:40034000DBB203F00701104A11701B09013213708023A2F2337213702032137020220B4B1A70102203F69B031A70022268331A7040F2011246331A804422A3F534731A70C7
:40038000704700BFCF0100496E580040FD51004008B50A46002101F08EF808BD08B501F07FF808BD38B50024314B1C80502202331A70192502331D8018232E4A137040F6F0
:4003C0005F11023211800232137004222A492B48FFF7E4FF02222A4B1A7008224FF040231A70032103F500731970264B1B78DBB225490B70254B1A8041F25122023B1A809A
:400400000CE0234B1B7803F0010343EA440404F003044FF4F07001F007F8013D0DB1032CEFD115B90320FFF76DFF1A4B4FF480721A8007221A70002217490A704820023119
:4004400008701A700222033B1A7004220A331A70124A137843F007031370013A137843F001031370013A137843F08003137038BD804000408640004074040048004100403F
:400480000043004008010049A146004022420040254200400440004006400040A2430040012807D8044B53F820201844017A13780B431370704700BFE4140000012808D83A
:4004C000044B53F820201844017A137823EA010313707047E414000038B572B63D4A137843F00403137000240BE03B4863001A19510001440A46098AD068FFF749FF01344D
:40050000E4B2092CF1D900240BE03349A3001819420088188022C16C806CFFF73FFF0134E4B2002CF1D02D494FF09040FFF7ECFE0A252B4B1D7004212A48FFF729FF0422CC
:4005400029492A48FFF72AFF04212948FFF720FF284A137843F0020313701032137843F002031370244C237843F040032370A2F58632513A137843F01003137008221F49B9
:400580001F48FFF70BFF08221E491F48FFF706FF2A461E491E48FFF701FF08221D491E48FFF7FCFE1D4A137843F0080313701C4D61232B70FFF7F6FE81232B700122194BDD
:4005C0001A70FFF7BBFE0E2221461748FFF7E6FE38BD00BFE8460040E414000074000048835800400076004078040048507600400876004003500140A04300405004004870
:40060000F2510040580400481251004060040048205100406C04004852510040224300400048004004000840B043004008B500F00BFF03680C2B00D1FEE7FEE708B5104E3D
:40064000104D16E029686B68AC68002204E051F8040B43F8040B0432A242F8D1E868002203E0002143F8041B04328242F9D11035013E002EE6D100F0EDFEFFF763FDFEE711
:40068000010000002816000008B5114A114B1A60114A136843F40073136000230AE0032B03D80E4A52F8231000E00D490D4A42F8231001332F2BF2D90B4B1A780B4B1A7014
:4006C000084A0B4B1A60FFF707FF00F093F808BD0004FA050CED00E014ED00E0000000002D0600000080FF1FBC760040C080FF1F08ED00E0044A137803F0DF03400100F08A
:40070000200018431070704720510040044A137803F0BF03800100F0400018431070704720510040044A137803F0EF03000100F0100018431070704720510040014B1B6803
:400740009865704708ED00E04001C0B2014B1870704700BF06E400E04022014B1A60704700E100E04022014B1A60704780E100E010B50446FFF7F6FF2046FFF7DFFF07200E
:40078000FFF7E2FFFFF7E8FF10BD00BF4022014B1A60704780E200E0014B1B681864704708ED00E04001C0B2014B1870704700BF00E400E00122014B1A60704700E100E0DF
:4007C0000122014B1A60704780E100E010B50446FFF7F6FF2046FFF7DFFF0720FFF7E2FFFFF7E8FF10BD00BF014B1878C0097047824500400B4A7F2313708021517007E057
:40080000DA0002F1804202F5F042013BDBB21370002BF5D1DB0003F1804303F5F04300221A707047CC80FF1F172815D831B103010A495A5C42F020025A5405E003010749E3
:400840005A5C02F0DF025A540001044A835C43F00103835400207047012070471070004017280BD80001064BC25C02F0FE02C254C25C02F0DF02C254002070470120704746
:400880001070004017280BD80001064A835C03F0F103490001F00E011943815400207047012070471070004041F6FF73994201D14FF4005141F6FF739A4201D14FF4005280
:4008C000172808D8C00000F1804000F5EC408180C280002070470120704700BF172805D8034B03EB0010417200207047012070471070004017281BD810B4C00000F18044A1
:4009000004F5EC44D201D2B201F07F01114321709DF804201201D2B203F00F03134363709DF8083003F00F03A3700020E07001E00120704710BC704710B500F07DFD0A4B4E
:400940005B78182B0BD9084A1478013B5370E30003F1804303F5F0431B78137000E0FF2400F06EFD204610BDCC80FF1F10F0800F0CD111F4704F0BD1C00000F1804000F558
:40098000F04001808270C37000207047012070470120704710F0800F08D1C00000F1804000F5F0408180C280002070470120704701BE704708B5034B1B7A00FB03F000F0F6
:4009C00033FD08BDD480FF1F70B504460E46074B1D681F2802D90020FFF7EAFF04F01F04103455F8240045F8246070BD08ED00E038B504460D46072902D90020FFF7D8FFC4
:400A00001F2C02D90020FFF7D3FF04F01F0000F1604000F564406D01EDB2057038BD00BFF0B583B016461F460B4C0A2525700023019300932B460A4601462846FFF75AFF72
:400A40003A4631462078FFF72FFF02212078FFF719FF207803B0F0BDE480FF1F7222074B1A70202203331A700622623B1A70472210331A70002253331A7070478A64004072
:400A800010B500F0D9FC04460A4A137843F0200313700332137843F0100313700132137843F01003137000F035FA204600F0C8FC10BD00BF9A64004008B5054B1B7823B91B
:400AC000FFF7CCFF0122024B1A70FFF7D9FF08BD7389FF1F014B1878704700BF4D640040034B1B7813F0040FFAD1024B187070476E6400404E64004038B5074B1B782BB943
:400B000038BDFFF7EDFF0134A4B201E005460024285D0028F5D138BD7389FF1F10B59DF80840012C51D1013809282ED8DFE800F0052D2D052D2D0F192D230F2B03D92548B0
:400B4000007840B222E02448007840B21EE00F2B03D92248007840B218E02148007840B214E00F2B03D91F48007840B20EE01E48007840B20AE00F2B03D91C48007840B219
:400B800004E01B48007840B200E0002001EB401101FB02F1C90B8AB20D2B0BD8C3F10E0289B211418AB2611E124800EB810101338B7005E0631E0F4901EB83030F219970C2
:400BC000013C0C4B23F8242010BD0020FFF7F0FE10BD00BF180100491C010049190100491D0100491A0100491E0100491B0100491F0100497889FF1FF8B5074600F01CFC58
:400C000006460D4D2B7843F003032B700B4C237843F0030323700A4B1F700320FFF7CAFE2B7803F0FC032B70237803F0FC032370304600F005FCF8BDF8460040F9460040AB
:400C40009258004038B500222F4B1A7101285AD138222E4B1A70042202331A70062201331A70002401331C7001331C703F2201331A7002331C7001331C7001331C70012590
:400C80000A331D70502203F527631A700A23204A13702C210132117001321470442103321170482101321170013215700232147001321470013213704322164B1A70522043
:400CC000FFF79AFF5822144B1A7001331C700223124A137001321370114B1C7001331C70204600F035F943F233320E4B1A602946052000F051F92946BA2000F0D1F90A49CB
:400D00001D20FFF761FE38BD7889FF1F004E00408558004091580040945800409A5800409C5800409089FF1F110F0000F0B583B0284D01272F70284E00247471102000F09D
:400D400019F9102000F09AF907211D20FFF750FE0422224B1A7001331C7007331C70204A137843F0180313701E4B1C7003F2F5231C7001331C700A22A3F209331A70013393
:400D80001C7002331C705B2205331A705E2201331A7004331C701422A3F68C231A70009710234FF4004248F6F0510220FFF7B6FE2B78013B06EB83039A780B4B1A702B7819
:400DC000013B36F82320094B1A802878FFF73AFF03B0F0BDE580FF1F7889FF1F96580040075B0040935800400E4E00400C4E004070B500F021FB06462A4B1B782A4B1A78CA
:400E000042F001021A701A7842F010021A7010331A7842F001021A701A7842F010021A70224D2B7843F002032B70214C237843F0020323701F4A137843F003031370032014
:400E4000FFF7B8FD2B7803F0FD032B70237803F0FD032370184A137843F0060313707A22164B1A70164A137843F0010313701032137843F0010313700F3A137843F001030B
:400E800013701032137843F0010313704FF000530C4A1360A2F5C0721360304600F0D0FA70BD00BFE580FF1FAA430040F8460040F946004091580040775800408258004076
:400EC000A143004080E200E008B5084B9B794BB9064BDB7913F0FF0F01D1FFF727FF0122024B9A71FFF784FF08BD00BF7889FF1F024A137843F0010313707047004E004053
:400F0000024A137803F0FE0313707047004E0040704700BF054A137843F0020313701032137843F002031370704700BFA243004010B5002404E02046FFF7C0FA0134E4B242
:400F4000012CF8D9FF22014B1A7010BDE680FF1F10B50446FFF7ECFF2046FFF7A1FA014B1C7010BDE680FF1F014B188880B2704780400040034B1A7800F0F80010431870A3
:400F8000704700BF82400040024B187800F00700704700BF8240004070B505460E46FFF7F3FF0446FFF7E0FFA84256D02B4B1B7803F0010294B900B185B938B9284B1D8056
:400FC000284A137803F0BF03137070BD254A137843F040031370224B1D8070BD22B3002321490B7001240F310C7004310B700C390B7803F07F030B701A4B1B7813F0080F2D
:4010000000D08DB9194B18800721013B1970164B1B7813F0010FFAD110490B7803F0FE030B700021104B19700C4B1B7813F0010F0DD00E4B1D800EB1032200E001220A4B83
:401040001A70094B1B7813F0010FFAD170BD044B1D8002490B7813430B7070BDA243004080400040824000400140004002400040014B188880B2704700410040034B1A78DC
:4010800000F0F80010431870704700BF02410040024B187800F00700704700BF0241004070B505460E46FFF7F3FF0446FFF7E0FFA84256D02B4B1B7803F0010294B900B1CF
:4010C00085B938B9284B1D80284A137803F0BF03137070BD254A137843F040031370224B1D8070BD22B3002321490B70012413310C7004390B7008390B7803F07F030B70F7
:401100001A4B1B7813F0080F00D08DB9194B18800721013B1970164B1B7813F0010FFAD110490B7803F0FE030B700021104B19700C4B1B7813F0010F0DD00E4B1D800EB1ED
:40114000032200E001220A4B1A70094B1B7813F0010FFAD170BD044B1D8002490B7813430B7070BDA14300400041004002410040014000400240004010B500F0CBF800F02B
:4011800023F9074C01212078FFF74EFB01216078FFF74AFB002000F0D9F800F071F810BD8489FF1F70B505460E464FF48043020C0121084600F072F8094C2070A07801239D
:4011C00002463146FFF7D2FB45F68332A9B2A078FFF7E0FBA1782078FFF780FB70BD00BF8489FF1F70B505460E464FF48043020C0121084600F070F8094C6070E0780123BF
:4012000002463146FFF7B2FB45F68332A9B2E078FFF7C0FBE1786078FFF760FB70BD00BF8489FF1F10B500F0B9F8022000F080F8042000F0A3F800F0E9F8FFF77DFB074C2E
:40124000A070FFF779FBE070054C64212046FFF7A9FF64216018FFF7C5FF10BD8489FF1F3815000008B5054B1B7923B9FFF7DAFF0122024B1A71FFF77FFF08BD8489FF1F23
:40128000054A137843F0040313701032137843F004031370704700BFA2430040F0B583B016461F460B4D00242C700194009423460A4601462046FFF71DFB3A46314628788D
:4012C000FFF7F2FA02212878FFF7DCFA287803B0F0BD00BFE780FF1FF0B583B016461F460B4C012525700023019300930A4601462846FFF7FFFA3A4631462078FFF7D4FAFD
:4013000002212078FFF7BEFA207803B0F0BD00BFE880FF1F054A137843F0080313701032137843F008031370704700BFA8430040054B1A7802F0FD021A701A7800F002005C
:4013400010431870704700BF2C580040014B1870704700BF835B0040064B1B78C3F3810303F19243063393F83831DBB2024A1370704700BF2C5800400B46004008B5064BA7
:401380001A7802F0F3021A701A7800F00C0010431870FFF7E1FF08BD2C58004008B50020074B187001331870064A137843F008031370FFF7E3FF0220FFF7BAFF08BD00BF26
:4013C0002C5800409F5A0040084A137843F060031370A2F5A652133A137843F0080313701032137843F008031370704777580040054B1A7802F0FC021A701A7800F003009D
:4014000010431870704700BF5E58004008B50220FFF7EEFF08BD00BF014B1878704700BF6B640040000000000230800803D000BF01380046FCD17047EFF3108072B670471E
:4014400080F31088704700BF014B1868704700BF4C81FF1F0E4B70B51E460E4C0025E41AA410A54204D056F8253098470135F8E700F0C8F8084B094C1E46E41AA4100025C6
:40148000A54204D056F8253098470135F8E770BD1016000010160000101600001816000010B5431E0A44914204D011F8014B03F8014FF8E710BD03460244934202D003F875
:4014C000011BFAE770470000000000000A00000055415254207374617274656400000000203A2000035B004024430040400000000051004010004051004010006051004069
:401500001000C0510040100000000140800C000D0140000300140140000800400140000A004C01400002005001402000800C0140D0030048800000007074787C8084888B9D
:401540008F9295989B9EA1A3A5A7A9ABACADAEAFAFAFAFAFAEADACABA9A7A5A3A19E9B9895928F8B8884807C7874716D6965615D5956524F4C494643403E3C3A38363534FA
:4015800033323232323233343536383A3C3E404346494C4F5256595D6165696D80848A8F94989EA2A8ACB2B6BCC0C6CAD0D5DADEE4E8EEF2F8FCF8F2EEE8E4DEDAD4D0CA81
:4015C000C6C0BCB6B2ADA8A29E98948F8A84807A76706B66615D58534E49443E39342F2A25211C17120D0803080D12171C21252A2F34393E44494E53585D61666B70767A2E
:4016000043000000F8B500BFF8BC08BC9E4670474D00000089060000F8B500BFF8BC08BC9E4670472900000038160000C880FF1F8800000048080000000000007F800000D9
:40164000030400000000E02EC05D00001800000000366E01FF01FFFFFF00000000000000000000000000000000000000000000000000000000000000000000000016000068
:40168000000000000000000000000000000000000000000000000000000000000000000000000000000000000000000000000000000000000000000000000000EC80FF1FA0
:4016C00000000000000000000000000000000000000000000000000000000000000000000000000000000000000000000000000000000000000000000000000000000000EA
:4017000000000000000000000000000000000000000000000000000000000000000000000000000000000000000000000000000000000000000000000000000000000000A9
:401740000000000000000000000000000000000000000000000000000000000000000000000000000000000000000000000000000000000000000000000000000000000069
:401780000000000000000000000000000000000000000000000000000000000000000000000000000000000000000000000000000000000000000000000000000000000029
:020000040003F7
:0200000480007A
:400000000145004003520040015A004003640040010301400205014001070140020901404C0A0140410B01400C0C0140400D0140500E0140350F014004160140021701405D
:4000400001190140044001400641014007420140074301400244014005450140074601400447014005480140034C0140055001400351014017021002110214019F018A729F
:400080008D388E0FE602E002EC04E404B084E4040013020C040C05180613080209080E131323140F151C16101721180119041C031D102008213C230224042704280C292792
:4000C0002B182C1F2D3F3138321C340F351F3AA83B2056025712580459045B045C115D105F0187018C0392019403970199019D01AC02B603B701B880B980BE40C001C74001
:40010000C9FFCA07CBFFCC40CD20CEF0CF05D008D401D804D904DA04DB04DC10DD91DF01E040E1A8E240E32000880102020A048008100A120E200F8010801394174019747F
:400140001A111D80200821012701288029583090310432023554378038283C084580568057415A045D406A806B14709473148D1290809140920695029691981099089B40F3
:400180009D609E809F15A040A218A404A701A940AB01B010B412C08FC237C48FCA0FCC7FCE46D010D612E002E801020106030A060E051E022C062E0132073A0858045C0121
:4001C0005F0100080120030104800514068008100A120B800F021080122816011740180519091D041E201F08201021102222230129142A012B013242331438A8390240010E
:400200004111488049604B80500459016006634087408840891090A09206961199109B409C109D209E809F14A208A404A709C0F7C28FC48ECA0FCC0FCE0FD00DD20CD601A5
:40024000D80D04200720082009120B050D200E0A10061104121813181420151F1806191F1A081C201F2020142208250926102706280629202A082C012F20301E311C3201F9
:400280003303342037203A023E143F404054410346B047EC483849FF4AFF4BFF4EF04F44500C5401580459045A045B045C115D115F0166C06A406B02800283088C018F0358
:4002C0009B0C9D0C9F03A401A901AB0EAD01AE01AF06B10FB403B820BB02D804D904DC11DF01000801A00480068008200A110B4810051102122216201740188019041A045B
:400300001B021D102010224925012740281429802AA02B082F0A3201335435103620374038983B403E803F02428043084B40501452025304582159045A80C097C20FC4AF28
:40034000CA3ECC3FCE9ED003D208D60FB920BF10D904DF0123088F08E44032203C40CC10CE20114086209440A620C440E6404F4087019440A940D220E040EC2013408040C9
:40038000944097409F01C440E4207D08DE0100085F80A504C008D60445088508A504AB80B004D001EA0433808380A504CC082440270194409F01C8A08D04A504E402000276
:4003C00001010C020D010E0200031002122000000000004000000340031400000010040C03800003002003000120280003201000001C0402000C031102092010001000001C
:40040000031F08400420308000000000000050446205040001E0000C12FFFFFF62A0F0410C0000001800040004040404111100010000000000004002001030100010101231
:40044000000000000000000000000000000000000000000000002000000B0B0000000000820001F272000200000000000000000000008000BB001801000A000000000000FF
:40048000000000000000000000000000000000000000000000000000000000000000000000000000000000000000000000000000000000000000000000000000000000003C
:4004C00000000000000000000000000000000000000000000000000000000000000000000000000000000000000000000000000000000000000000000000000000000000FC
:4005000000000000000000000000000000000000000000000000000000000000000000000000000000000000000000000000000000000000000000000000000000000000BB
:40054000000000000000000000000000000000000000000000000000000000000000000000000000000000000000000000000000000000000000000000000000000000007B
:0200000490006A
:0400000000004005B7
:0200000490105A
:04000000BC90ACAF55
:0200000490303A
:02000000EE9080
:0200000490402A
:4000000000000000000000000000000000000000000000000000000000000000000000000000000000000000000000000000000000000000000000000000000000000000C0
:400040000000000000000000000000000000000000000000000000000000000000000000000000000000000000000000000000000000000000000000000000000000000080
:400080000000000000000000000000000000000000000000000000000000000000000000000000000000000000000000000000000000000000000000000000000000000040
:4000C0000000000000000000000000000000000000000000000000000000000000000000000000000000000000000000000000000000000000000000000000000000000000
:0200000490501A
:0C00000000012E16006900012E1EEEF912
:00000001FF